{
  "address": "0xa513E6E4b8f2a923D98304ec87F64353C4D5C853",
  "abi": [
    {
      "inputs": [
        {
          "internalType": "address",
          "name": "_verifier",
          "type": "address"
        },
        {
          "internalType": "address",
          "name": "_juryRegistry",
          "type": "address"
        }
      ],
      "stateMutability": "nonpayable",
      "type": "constructor"
    },
    {
      "anonymous": false,
      "inputs": [
        {
          "indexed": true,
          "internalType": "uint256",
          "name": "taskId",
          "type": "uint256"
        },
        {
          "indexed": false,
          "internalType": "address",
          "name": "juror",
          "type": "address"
        }
      ],
      "name": "ScoreCommitted",
      "type": "event"
    },
    {
      "anonymous": false,
      "inputs": [
        {
          "indexed": true,
          "internalType": "uint256",
          "name": "taskId",
          "type": "uint256"
        },
        {
          "indexed": false,
          "internalType": "address",
          "name": "juror",
          "type": "address"
        },
        {
          "indexed": false,
          "internalType": "uint256",
          "name": "score",
          "type": "uint256"
        }
      ],
      "name": "ScoreRevealed",
      "type": "event"
    },
    {
      "anonymous": false,
      "inputs": [
        {
          "indexed": true,
          "internalType": "uint256",
          "name": "taskId",
          "type": "uint256"
        },
        {
          "indexed": false,
          "internalType": "address",
          "name": "worker",
          "type": "address"
        }
      ],
      "name": "TaskAccepted",
      "type": "event"
    },
    {
      "anonymous": false,
      "inputs": [
        {
          "indexed": true,
          "internalType": "uint256",
          "name": "taskId",
          "type": "uint256"
        },
        {
          "indexed": false,
          "internalType": "address",
          "name": "payer",
          "type": "address"
        },
        {
          "indexed": false,
          "internalType": "address",
          "name": "worker",
          "type": "address"
        },
        {
          "indexed": false,
          "internalType": "uint256",
          "name": "escrow",
          "type": "uint256"
        },
        {
          "indexed": false,
          "internalType": "uint256",
          "name": "minScore",
          "type": "uint256"
        }
      ],
      "name": "TaskCreated",
      "type": "event"
    },
    {
      "anonymous": false,
      "inputs": [
        {
          "indexed": true,
          "internalType": "uint256",
          "name": "taskId",
          "type": "uint256"
        },
        {
          "indexed": false,
          "internalType": "uint256",
          "name": "finalScore",
          "type": "uint256"
        },
        {
          "indexed": false,
          "internalType": "bool",
          "name": "passed",
          "type": "bool"
        },
        {
          "indexed": false,
          "internalType": "address",
          "name": "recipient",
          "type": "address"
        }
      ],
      "name": "TaskResolved",
      "type": "event"
    },
    {
      "anonymous": false,
      "inputs": [
        {
          "indexed": true,
          "internalType": "uint256",
          "name": "taskId",
          "type": "uint256"
        },
        {
          "indexed": false,
          "internalType": "string",
          "name": "resultURI",
          "type": "string"
        }
      ],
      "name": "ZKPassed",
      "type": "event"
    },
    {
      "inputs": [],
      "name": "COMMIT_WINDOW",
      "outputs": [
        {
          "internalType": "uint256",
          "name": "",
          "type": "uint256"
        }
      ],
      "stateMutability": "view",
      "type": "function"
    },
    {
      "inputs": [],
      "name": "MAX_DEVIATION",
      "outputs": [
        {
          "internalType": "uint256",
          "name": "",
          "type": "uint256"
        }
      ],
      "stateMutability": "view",
      "type": "function"
    },
    {
      "inputs": [],
      "name": "REVEAL_WINDOW",
      "outputs": [
        {
          "internalType": "uint256",
          "name": "",
          "type": "uint256"
        }
      ],
      "stateMutability": "view",
      "type": "function"
    },
    {
      "inputs": [],
      "name": "SLASH_DEVIATION_BPS",
      "outputs": [
        {
          "internalType": "uint256",
          "name": "",
          "type": "uint256"
        }
      ],
      "stateMutability": "view",
      "type": "function"
    },
    {
      "inputs": [],
      "name": "SLASH_NO_REVEAL_BPS",
      "outputs": [
        {
          "internalType": "uint256",
          "name": "",
          "type": "uint256"
        }
      ],
      "stateMutability": "view",
      "type": "function"
    },
    {
      "inputs": [
        {
          "internalType": "uint256",
          "name": "taskId",
          "type": "uint256"
        }
      ],
      "name": "acceptTask",
      "outputs": [],
      "stateMutability": "nonpayable",
      "type": "function"
    },
    {
      "inputs": [
        {
          "internalType": "uint256",
          "name": "taskId",
          "type": "uint256"
        }
      ],
      "name": "claimTimeout",
      "outputs": [],
      "stateMutability": "nonpayable",
      "type": "function"
    },
    {
      "inputs": [
        {
          "internalType": "uint256",
          "name": "taskId",
          "type": "uint256"
        },
        {
          "internalType": "bytes32",
          "name": "scoreHash",
          "type": "bytes32"
        }
      ],
      "name": "commitScore",
      "outputs": [],
      "stateMutability": "nonpayable",
      "type": "function"
    },
    {
      "inputs": [
        {
          "internalType": "address",
          "name": "worker",
          "type": "address"
        },
        {
          "components": [
            {
              "internalType": "uint256",
              "name": "minLength",
              "type": "uint256"
            },
            {
              "internalType": "uint256",
              "name": "minFieldCount",
              "type": "uint256"
            },
            {
              "internalType": "bytes32",
              "name": "fieldListHash",
              "type": "bytes32"
            }
          ],
          "internalType": "struct ArbiterEscrow.ObjectiveCriteria",
          "name": "objective",
          "type": "tuple"
        },
        {
          "internalType": "string",
          "name": "subjectiveCriteria",
          "type": "string"
        },
        {
          "internalType": "uint256",
          "name": "minScore",
          "type": "uint256"
        },
        {
          "internalType": "uint256",
          "name": "juryCount",
          "type": "uint256"
        },
        {
          "internalType": "uint256",
          "name": "deadline",
          "type": "uint256"
        }
      ],
      "name": "createTask",
      "outputs": [
        {
          "internalType": "uint256",
          "name": "taskId",
          "type": "uint256"
        }
      ],
      "stateMutability": "payable",
      "type": "function"
    },
    {
      "inputs": [
        {
          "internalType": "uint256",
          "name": "taskId",
          "type": "uint256"
        }
      ],
      "name": "getAssignedJurors",
      "outputs": [
        {
          "internalType": "address[]",
          "name": "",
          "type": "address[]"
        }
      ],
      "stateMutability": "view",
      "type": "function"
    },
    {
      "inputs": [
        {
          "internalType": "uint256",
          "name": "taskId",
          "type": "uint256"
        }
      ],
      "name": "getJuryRecords",
      "outputs": [
        {
          "components": [
            {
              "internalType": "address",
              "name": "juror",
              "type": "address"
            },
            {
              "internalType": "bytes32",
              "name": "scoreHash",
              "type": "bytes32"
            },
            {
              "internalType": "uint256",
              "name": "score",
              "type": "uint256"
            },
            {
              "internalType": "bool",
              "name": "committed",
              "type": "bool"
            },
            {
              "internalType": "bool",
              "name": "revealed",
              "type": "bool"
            }
          ],
          "internalType": "struct ArbiterEscrow.JuryRecord[]",
          "name": "",
          "type": "tuple[]"
        }
      ],
      "stateMutability": "view",
      "type": "function"
    },
    {
      "inputs": [
        {
          "internalType": "uint256",
          "name": "taskId",
          "type": "uint256"
        }
      ],
      "name": "getTask",
      "outputs": [
        {
          "components": [
            {
              "internalType": "uint256",
              "name": "id",
              "type": "uint256"
            },
            {
              "internalType": "address",
              "name": "payer",
              "type": "address"
            },
            {
              "internalType": "address",
              "name": "worker",
              "type": "address"
            },
            {
              "internalType": "uint256",
              "name": "escrow",
              "type": "uint256"
            },
            {
              "internalType": "uint256",
              "name": "deadline",
              "type": "uint256"
            },
            {
              "internalType": "enum ArbiterEscrow.Status",
              "name": "status",
              "type": "uint8"
            },
            {
              "components": [
                {
                  "internalType": "uint256",
                  "name": "minLength",
                  "type": "uint256"
                },
                {
                  "internalType": "uint256",
                  "name": "minFieldCount",
                  "type": "uint256"
                },
                {
                  "internalType": "bytes32",
                  "name": "fieldListHash",
                  "type": "bytes32"
                }
              ],
              "internalType": "struct ArbiterEscrow.ObjectiveCriteria",
              "name": "objective",
              "type": "tuple"
            },
            {
              "internalType": "string",
              "name": "subjectiveCriteria",
              "type": "string"
            },
            {
              "internalType": "uint256",
              "name": "minScore",
              "type": "uint256"
            },
            {
              "internalType": "bytes32",
              "name": "resultCommitment",
              "type": "bytes32"
            },
            {
              "internalType": "string",
              "name": "resultURI",
              "type": "string"
            },
            {
              "internalType": "uint256",
              "name": "juryCount",
              "type": "uint256"
            },
            {
              "internalType": "uint256",
              "name": "juryCommitted",
              "type": "uint256"
            },
            {
              "internalType": "uint256",
              "name": "juryRevealed",
              "type": "uint256"
            },
            {
              "internalType": "uint256",
              "name": "commitDeadline",
              "type": "uint256"
            },
            {
              "internalType": "uint256",
              "name": "revealDeadline",
              "type": "uint256"
            }
          ],
          "internalType": "struct ArbiterEscrow.Task",
          "name": "",
          "type": "tuple"
        }
      ],
      "stateMutability": "view",
      "type": "function"
    },
    {
      "inputs": [
        {
          "internalType": "uint256",
          "name": "",
          "type": "uint256"
        },
        {
          "internalType": "address",
          "name": "",
          "type": "address"
        }
      ],
      "name": "juryIndex",
      "outputs": [
        {
          "internalType": "uint256",
          "name": "",
          "type": "uint256"
        }
      ],
      "stateMutability": "view",
      "type": "function"
    },
    {
      "inputs": [
        {
          "internalType": "uint256",
          "name": "",
          "type": "uint256"
        },
        {
          "internalType": "uint256",
          "name": "",
          "type": "uint256"
        }
      ],
      "name": "juryRecords",
      "outputs": [
        {
          "internalType": "address",
          "name": "juror",
          "type": "address"
        },
        {
          "internalType": "bytes32",
          "name": "scoreHash",
          "type": "bytes32"
        },
        {
          "internalType": "uint256",
          "name": "score",
          "type": "uint256"
        },
        {
          "internalType": "bool",
          "name": "committed",
          "type": "bool"
        },
        {
          "internalType": "bool",
          "name": "revealed",
          "type": "bool"
        }
      ],
      "stateMutability": "view",
      "type": "function"
    },
    {
      "inputs": [],
      "name": "juryRegistry",
      "outputs": [
        {
          "internalType": "contract JuryRegistry",
          "name": "",
          "type": "address"
        }
      ],
      "stateMutability": "view",
      "type": "function"
    },
    {
      "inputs": [
        {
          "internalType": "uint256",
          "name": "taskId",
          "type": "uint256"
        },
        {
          "internalType": "uint256",
          "name": "score",
          "type": "uint256"
        },
        {
          "internalType": "bytes32",
          "name": "salt",
          "type": "bytes32"
        }
      ],
      "name": "revealScore",
      "outputs": [],
      "stateMutability": "nonpayable",
      "type": "function"
    },
    {
      "inputs": [
        {
          "internalType": "uint256",
          "name": "taskId",
          "type": "uint256"
        },
        {
          "internalType": "bytes32",
          "name": "resultCommitment",
          "type": "bytes32"
        },
        {
          "internalType": "string",
          "name": "resultURI",
          "type": "string"
        },
        {
          "internalType": "uint256[2]",
          "name": "proofA",
          "type": "uint256[2]"
        },
        {
          "internalType": "uint256[2][2]",
          "name": "proofB",
          "type": "uint256[2][2]"
        },
        {
          "internalType": "uint256[2]",
          "name": "proofC",
          "type": "uint256[2]"
        },
        {
          "internalType": "uint256[3]",
          "name": "publicSignals",
          "type": "uint256[3]"
        }
      ],
      "name": "submitResult",
      "outputs": [],
      "stateMutability": "nonpayable",
      "type": "function"
    },
    {
      "inputs": [],
      "name": "taskCount",
      "outputs": [
        {
          "internalType": "uint256",
          "name": "",
          "type": "uint256"
        }
      ],
      "stateMutability": "view",
      "type": "function"
    },
    {
      "inputs": [
        {
          "internalType": "uint256",
          "name": "",
          "type": "uint256"
        }
      ],
      "name": "tasks",
      "outputs": [
        {
          "internalType": "uint256",
          "name": "id",
          "type": "uint256"
        },
        {
          "internalType": "address",
          "name": "payer",
          "type": "address"
        },
        {
          "internalType": "address",
          "name": "worker",
          "type": "address"
        },
        {
          "internalType": "uint256",
          "name": "escrow",
          "type": "uint256"
        },
        {
          "internalType": "uint256",
          "name": "deadline",
          "type": "uint256"
        },
        {
          "internalType": "enum ArbiterEscrow.Status",
          "name": "status",
          "type": "uint8"
        },
        {
          "components": [
            {
              "internalType": "uint256",
              "name": "minLength",
              "type": "uint256"
            },
            {
              "internalType": "uint256",
              "name": "minFieldCount",
              "type": "uint256"
            },
            {
              "internalType": "bytes32",
              "name": "fieldListHash",
              "type": "bytes32"
            }
          ],
          "internalType": "struct ArbiterEscrow.ObjectiveCriteria",
          "name": "objective",
          "type": "tuple"
        },
        {
          "internalType": "string",
          "name": "subjectiveCriteria",
          "type": "string"
        },
        {
          "internalType": "uint256",
          "name": "minScore",
          "type": "uint256"
        },
        {
          "internalType": "bytes32",
          "name": "resultCommitment",
          "type": "bytes32"
        },
        {
          "internalType": "string",
          "name": "resultURI",
          "type": "string"
        },
        {
          "internalType": "uint256",
          "name": "juryCount",
          "type": "uint256"
        },
        {
          "internalType": "uint256",
          "name": "juryCommitted",
          "type": "uint256"
        },
        {
          "internalType": "uint256",
          "name": "juryRevealed",
          "type": "uint256"
        },
        {
          "internalType": "uint256",
          "name": "commitDeadline",
          "type": "uint256"
        },
        {
          "internalType": "uint256",
          "name": "revealDeadline",
          "type": "uint256"
        }
      ],
      "stateMutability": "view",
      "type": "function"
    },
    {
      "inputs": [],
      "name": "verifier",
      "outputs": [
        {
          "internalType": "contract IVerifier",
          "name": "",
          "type": "address"
        }
      ],
      "stateMutability": "view",
      "type": "function"
    }
  ],
  "transactionHash": "0xff0132f2e2b0f14ebaa4ff09d37d165280d621c95e042a11f71aa0880334e5d7",
  "args": [
    "0x5FC8d32690cc91D4c39d9d3abcBD16989F875707",
    "0x0165878A594ca255338adfa4d48449f69242Eb8F"
  ],
  "numDeployments": 1,
  "solcInputHash": "b2e2b1ad5924feb2ae7c241b539ea318",
  "bytecode": "0x6080346200009657601f6200260d38819003918201601f19168301916001600160401b038311848410176200009b57808492604094855283398101031262000096576200005a60206200005283620000b1565b9201620000b1565b600580546001600160a01b039384166001600160a01b031991821617909155600480549290931691161790556040516125469081620000c78239f35b600080fd5b634e487b7160e01b600052604160045260246000fd5b51906001600160a01b0382168203620000965756fe60a0604052600436101561001257600080fd5b60003560e01c806317e931cf14611a505780631bf6912d146119975780631d65e77e146117045780632b7ac3f3146116db57806335b05ec1146115e3578063690b06b6146115c6578063762ff4dc1461157957806377cbc4001461136457806386e773f1146113485780638b1e45491461131f5780638d977672146111b8578063a386900114610f08578063b05f233a14610eec578063b6cb58a514610ece578063b83a520314610605578063d46ce651146102bc578063e97f6a68146102b7578063eae738dc1461029a578063eb6e6c1c1461021c5763fea27aa9146100f857600080fd5b3461021757602080600319360112610217576004356000526002908181526040600020918254610127816124d8565b916101356040519384611b23565b81835260009485528385208484019591865b8484106101be57604080518881528751818a018190528a928201908a60005b8281106101735784840385f35b855180516001600160a01b031685528083015185840152604080820151908601526060808201511515908601526080908101511515908501529481019460a090930192600101610166565b6004876001926040516101d081611af3565b848060a01b0387541681528487015483820152858701546040820152600387015460ff908181161515606084015260081c1615156080820152815201930193019291610147565b600080fd5b34610217576040366003190112610217576024356004356000526002602052604060002080548210156102175760a09161025591611c7b565b5060ff600180841b03825416916001810154906003600282015491015491604051948552602085015260408401528181161515606084015260081c1615156080820152f35b346102175760003660031901126102175760206040516103e88152f35b611a50565b610100366003190112610217576004356001600160a01b038116908190036102175760603660231901126102175767ffffffffffffffff906084358281116102175761030c903690600401611c4d565b909160a43560c43560e43534156105d457831561059e576103306064841115611c97565b6001968783101580610593575b156105635761034d428311611cd1565b6000549561035a87611d0f565b600055866000526020978989526040600020938885558a85016bffffffffffffffffffffffff60a01b90338282541617905588600287019182541617905534600386015560048501556005840160ff1981541690556024356006850155604435600785015560643560088501556009840192821161054d576103dc8354611b6d565b601f8111610508575b5098879899600090601f84116001146104745792808060809997947f487933e034710db4f40e8db61e822d2fff54215ca95e11baff632af66e1fbab69b999794600d97600094610469575b50501b916000199060031b1c19161790555b83600a820155015560405191338352878301523460408301526060820152a2604051908152f35b013592508f80610430565b60008581528c81209394939290601f198516908e5b8282106104f057505092600d9592859260809b99967f487933e034710db4f40e8db61e822d2fff54215ca95e11baff632af66e1fbab69d9b9996106104d6575b505050811b019055610442565b0135600019600384901b60f8161c191690558d80806104c9565b8484013586558e9d509487019492830192018e610489565b8360005289600020601f840160051c8101918b8510610543575b601f0160051c01905b81811061053857506103e5565b600081558b0161052b565b9091508190610522565b634e487b7160e01b600052604160045260246000fd5b60405162461bcd60e51b81526020600482015260086024820152674a75727920312d3560c01b6044820152606490fd5b50600583111561033d565b60405162461bcd60e51b815260206004820152600e60248201526d24b73b30b634b2103bb7b935b2b960911b6044820152606490fd5b60405162461bcd60e51b81526020600482015260096024820152684e6f20657363726f7760b81b6044820152606490fd5b34610217576101c03660031901126102175760443567ffffffffffffffff811161021757610637903690600401611c4d565b903660a41161021757366101241161021757366101641161021757366101c41161021757600435600052600160205260406000209160ff6005840154166005811015610eb857600103610e845761069b60018060a01b036002850154163314611d1e565b6106ab6004840154421115611cd1565b60068301546101643503610e4a5760078301546101843503610e10576024356101a43503610dd557600554604080516308a3cff560e11b8152916001600160a01b031690606460048401378160a46000604483015b60028210610dbb5750505061016481602093604061012460c48401376060836101048401375afa908115610a7357600091610d9c575b5015610d6457602435600b84015567ffffffffffffffff811161054d57610760600c840154611b6d565b601f8111610d1d575b50806000601f8211600114610caf57600091610ca4575b508160011b906000198360031b1c191617600c8401555b60058301805460ff191660021790554261012c810110610c2157600492601061012c420191015582356000526001602052604060002091602060018060a01b0385541660405195868092637092a91d60e11b82525afa938415610a7357600094610c70575b50600d8301548410610c375760009160405142602082015244604082015260043560608201526060815280608081011067ffffffffffffffff60808301111761054d576080810160405260208151910120916000935b600d860154811080610c06575b15610b6a5760405160208101908582528660408201526040815261088281611ad7565b519020908715610b545760048054604051630a03854560e41b8152938a9006918401919091526001600160a01b0316602083602481845afa928315610a7357600093610b10575b506004356000526003602052604060002060018060a01b0384166000526020526040600020541590811591610aa0575b50610a9557600435600052600260205260406000206040519061091b82611af3565b6001600160a01b03841682526000602083018190526040830181905260608301819052608083015280546801000000000000000081101561054d5761096591600182018155611c7b565b610a7f5760039060018060a01b038351166bffffffffffffffffffffffff60a01b82541617815560208301516001820155604083015160028201550190606081015115159060ff61ff0060808554930151151560081b1692169061ffff19161717905560043560005260026020526040600020546003602052604060002060018060a01b03841660005260205260406000205560018060a01b036004541691823b1561021757604051632ce962cf60e01b81526001600160a01b03909116600482015260016024820152916000908390604490829084905af1908115610a7357610a5e92610a5892610a64575b50611d0f565b94611d0f565b93610852565b610a6d90611b0f565b89610a52565b6040513d6000823e3d90fd5b634e487b7160e01b600052600060045260246000fd5b94610a5e9150611d0f565b6040516366e305fd60e01b81526001600160a01b03851660048201529150602090829060249082905afa908115610a7357600091610ae1575b5015896108f9565b610b03915060203d602011610b09575b610afb8183611b23565b810190611d57565b89610ad9565b503d610af1565b9092506020813d602011610b4c575b81610b2c60209383611b23565b8101031261021757516001600160a01b03811681036102175791896108c9565b3d9150610b1f565b634e487b7160e01b600052601260045260246000fd5b600d86015403610bc9577f5d0934175fbdf2ea7c537c62ca98fc339cf5aef1ac86ef8cbc5e89b91b41772b90826040519160208352816020840152604083013760006040848301015260408160043594601f80199101168101030190a2005b60405162461bcd60e51b8152602060048201526015602482015274129d5c9e481cd95b1958dd1a5bdb8819985a5b1959605a1b6044820152606490fd5b5060038781810204811488151715610c21578702851061085f565b634e487b7160e01b600052601160045260246000fd5b60405162461bcd60e51b81526020600482015260116024820152704e6f7420656e6f756768206a75726f727360781b6044820152606490fd5b9093506020813d602011610c9c575b81610c8c60209383611b23565b81010312610217575192846107fc565b3d9150610c7f565b905082013584610780565b9050600c840160005260206000209060005b601f1984168110610d05575082601f19811610610ceb575b5050600181811b01600c840155610797565b830135600019600384901b60f8161c191690558380610cd9565b90916020600181928588013581550193019101610cc1565b600c84016000526020600020601f830160051c810160208410610d5d575b601f830160051c82018110610d51575050610769565b60008155600101610d3b565b5080610d3b565b60405162461bcd60e51b815260206004820152601060248201526f1692c81c1c9bdbd9881a5b9d985b1a5960821b6044820152606490fd5b610db5915060203d602011610b0957610afb8183611b23565b84610736565b829350604081816001949581943701930191018492610700565b60405162461bcd60e51b81526020600482015260136024820152720c6dedadad2e8dacadce840dad2e6dac2e8c6d606b1b6044820152606490fd5b60405162461bcd60e51b81526020600482015260126024820152710dad2dc8cd2cad8c8e640dad2e6dac2e8c6d60731b6044820152606490fd5b60405162461bcd60e51b81526020600482015260126024820152710dad2dc98cadccee8d040dad2e6dac2e8c6d60731b6044820152606490fd5b60405162461bcd60e51b815260206004820152600c60248201526b139bdd081058d8d95c1d195960a21b6044820152606490fd5b634e487b7160e01b600052602160045260246000fd5b34610217576000366003190112610217576020600054604051908152f35b3461021757600036600319011261021757602060405160148152f35b346102175760603660031901126102175760043560248035908260005260206001815260406000209160ff60058401541660058110156111a35760030361116d57601183015480156111345742116110fa57610f676064851115611c97565b84600052600382526040600020336000528252610fa8610f96604060002054610f91811515611d6f565b611daf565b86600052600284526040600020611c7b565b5090600382019182549160ff8316156110c75760ff8360081c1661109157600182015460405186810190898252604435604082015260408152610fea81611ad7565b5190200361105e5750600d949387936101007fe3a512f2b722eba73136c0de5172e96c972b81970c46f27f849721a417c9ed0194896002604096015561ff001916179055600f85019661103d8854611d0f565b809855825191338352820152a201541461105357005b61105c90612181565b005b84600d6064926040519262461bcd60e51b845260048401528201526c090c2e6d040dad2e6dac2e8c6d609b1b6044820152fd5b8460106064926040519262461bcd60e51b845260048401528201526f105b1c9958591e481c995d99585b195960821b6044820152fd5b84600d6064926040519262461bcd60e51b845260048401528201526c139bdd0818dbdb5b5a5d1d1959609a1b6044820152fd5b9060146064926040519262461bcd60e51b845260048401528201527314995d99585b081dda5b991bddc818db1bdcd95960621b6044820152fd5b60405162461bcd60e51b8152600481018490526012818401527114995d99585b081b9bdd081cdd185c9d195960721b6044820152606490fd5b9060106064926040519262461bcd60e51b845260048401528201526f4e6f742064656c696265726174696e6760801b6044820152fd5b50634e487b7160e01b60009081526021600452fd5b3461021757602036600319011261021757600435600052600160205260406000208054600160a01b60019003918260018201541692600282015416926003820154936004830154600584015460ff166006850161121490611b45565b9061122160098701611ba7565b600a87015492600b88015492600c890161123a90611ba7565b95600d8a01549b600e8b015498600f8c01549a60108d01549c601101549d60405180608052526080516020015260805160400152608051606001526080516080015260805160a00161128b91611a6d565b60805160c0016112ae916040809180518452602081015160208501520151910152565b610240806080516101200152608051016112c791611a7a565b91608051610140015260805161016001526080518082039061018001526112ed91611a7a565b946080516101a001526080516101c001526080516101e001526080516102000152608051610220015260805180910390f35b34610217576000366003190112610217576004546040516001600160a01b039091168152602090f35b346102175760203660031901126102175761105c600435611dbc565b3461021757604036600319011261021757600435806000526020600181526040600020906005820160ff8154166005811015610eb8576002811490811561156e575b501561153557601083015442116114f957836000526003825260406000203360005282526113f36113e1604060002054610f91811515611d6f565b85600052600284526040600020611c7b565b50906003820180549260ff84166114c0576001602435910155600160ff19809416179055600e8401916114268354611d0f565b80935581549060ff82166005811015610eb8576002146114b2575b505050600d8301541461147b575b7f832402fe0c2ab65bc597e7580443378f72b523c337d66efd7ae2b1bae8a5dfa19150604051338152a2005b61012c4201804211610c215760117f832402fe0c2ab65bc597e7580443378f72b523c337d66efd7ae2b1bae8a5dfa193015561144f565b166003179055848080611441565b60405162461bcd60e51b8152600481018690526011602482015270105b1c9958591e4818dbdb5b5a5d1d1959607a1b6044820152606490fd5b60405162461bcd60e51b815260048101839052601460248201527310dbdb5b5a5d081dda5b991bddc818db1bdcd95960621b6044820152606490fd5b60405162461bcd60e51b81526004810183905260116024820152704e6f7420696e206a75727920706861736560781b6044820152606490fd5b6003915014856113a6565b34610217576040366003190112610217576024356001600160a01b038116908190036102175760043560005260036020526040600020906000526020526020604060002054604051908152f35b346102175760003660031901126102175760206040516107d08152f35b346102175760208060031936011261021757600435600052600281526040600020805461160f816124d8565b9061161d6040519283611b23565b808252611629816124d8565b8285019390601f190136853760005b82811061168c5750505090604051928392818401908285525180915260408401929160005b82811061166c57505050500390f35b83516001600160a01b03168552869550938101939281019260010161165d565b6116968183611c7b565b505484516001600160a01b0390911691908110156116c5576116c091878260051b87010152611d0f565b611638565b634e487b7160e01b600052603260045260246000fd5b34610217576000366003190112610217576005546040516001600160a01b039091168152602090f35b346102175760203660031901126102175760006101e060405161172681611aba565b8281528260208201528260408201528260608201528260808201528260a082015260405161175381611ad7565b83815283602082015283604082015260c0820152606060e0820152826101008201528261012082015260606101408201528261016082015282610180820152826101a0820152826101c0820152015260043560005260016020526040600020604051906117bf82611aba565b8054825260018101546001600160a01b0390811660208401526002820154166040830152600381015460608301526004810154608083015260058082015460ff169190821015610eb85760119160a084015261181d60068201611b45565b60c084015261182e60098201611ba7565b60e0840152600a810154610100840152600b810154610120840152611855600c8201611ba7565b610140840152600d810154610160840152600e810154610180840152600f8101546101a084015260108101546101c084015201546101e08201526040518091602082528051602083015260018060a01b03602082015116604083015260018060a01b03604082015116606083015260608101516080830152608081015160a08301526118e960a082015160c0840190611a6d565b60c0810151805160e084015260208101516101008401526040015161012083015260e08101516101e061195e61192e6102409384610140880152610260870190611a7a565b610100850151610160870152610120850151610180870152610140850151868203601f19016101a0880152611a7a565b926101608101516101c0860152610180810151828601526101a08101516102008601526101c08101516102208601520151908301520390f35b346102175760203660031901126102175760043580600052600160205260406000206005810190815460ff81166005811015610eb857611a1d576119ea6001926002848060a01b03910154163314611d1e565b60ff19161790557fc8717b61398fb9d7cacf49fe1e296b2f10e9711226b532842b6ffd642cb6a2c66020604051338152a2005b60405162461bcd60e51b815260206004820152600b60248201526a139bdd0810dc99585d195960aa1b6044820152606490fd5b3461021757600036600319011261021757602060405161012c8152f35b906005821015610eb85752565b919082519283825260005b848110611aa6575050826000602080949584010152601f8019910116010190565b602081830181015184830182015201611a85565b610200810190811067ffffffffffffffff82111761054d57604052565b6060810190811067ffffffffffffffff82111761054d57604052565b60a0810190811067ffffffffffffffff82111761054d57604052565b67ffffffffffffffff811161054d57604052565b90601f8019910116810190811067ffffffffffffffff82111761054d57604052565b90604051611b5281611ad7565b60406002829480548452600181015460208501520154910152565b90600182811c92168015611b9d575b6020831014611b8757565b634e487b7160e01b600052602260045260246000fd5b91607f1691611b7c565b9060405191826000825492611bbb84611b6d565b908184526001948581169081600014611c2a5750600114611be7575b5050611be592500383611b23565b565b9093915060005260209081600020936000915b818310611c12575050611be593508201013880611bd7565b85548884018501529485019487945091830191611bfa565b915050611be594506020925060ff191682840152151560051b8201013880611bd7565b9181601f840112156102175782359167ffffffffffffffff8311610217576020838186019501011161021757565b80548210156116c55760005260206000209060021b0190600090565b15611c9e57565b60405162461bcd60e51b815260206004820152600b60248201526a053636f7265203e203130360ac1b6044820152606490fd5b15611cd857565b60405162461bcd60e51b815260206004820152600f60248201526e111958591b1a5b99481c185cdcd959608a1b6044820152606490fd5b6000198114610c215760010190565b15611d2557565b60405162461bcd60e51b815260206004820152600a6024820152692737ba103bb7b935b2b960b11b6044820152606490fd5b90816020910312610217575180151581036102175790565b15611d7657565b60405162461bcd60e51b81526020600482015260116024820152704e6f742061737369676e6564206a75727960781b6044820152606490fd5b8015610c21576000190190565b600090808252600190602092828452604092838220600581019182549260ff9384811660058110156121075783811591821561216a575b50508061215d575b61211b57508054848116600581101561210757600281149081156120fc575b50806120ef575b806120e2575b806120d1575b61203b5750838154169360058510156120275760038095148061201a575b8061200d575b80611ffc575b611e9f57875162461bcd60e51b8152600481018a9052601860248201527f4e6f2074696d656f757420636f6e646974696f6e206d657400000000000000006044820152606490fd5b868652600289528786209698979596839188835b611f26575b50505050600f83015415611ed65750505050505050611be590612181565b91611f1460609694926000805160206124f1833981519152989694600460ff1982541617905582019160018060a01b0393848454169101549061243d565b541691815193818552840152820152a2565b8254811015611ff7578188611f3b8386611c7b565b5001541680611fdd575b611f59575b611f5390611d0f565b83611eb3565b9091925060018060a01b0360048181541691611f758487611c7b565b50541690823b15611fd9579060448c92838d5195869485936302fb4d8560e01b85528401526107d060248401525af18015611fcf5791611f539187959493611fc0575b509050611f4a565b611fc990611b0f565b38611fb8565b89513d8c823e3d90fd5b8b80fd5b508188611fea8386611c7b565b50015460081c1615611f45565b611eb8565b50600f840154600d85015411611e57565b5060118401544211611e51565b5060118401541515611e4b565b634e487b7160e01b86526021600452602486fd5b949691909792959350600e8601948554151560001461209257505050505054600d82015561012c42019182421161207e575060110155805460ff19166003179055565b634e487b7160e01b81526011600452602490fd5b606096929395509760046000805160206124f183398151915298959960ff19161790558101611f1460018060a01b03926003848454169101549061243d565b50600e840154600d85015411611e2d565b5060108401544211611e27565b5060108401541515611e21565b600391501438611e1a565b634e487b7160e01b87526021600452602487fd5b60ff191660041790558101805460039092015494966000805160206124f18339815191529660609691959450926001600160a01b039291611f1491841661243d565b5060048401544211611dfb565b1490508338611df3565b91908203918211610c2157565b60008181526001908160205260409081812090809381906002918260205285842096848854905b8181106123d357505081156123bf57049583825b612245575b505091612217600385936060979560056000805160206124f18339815191529a9801600460ff19825416179055600a86015488101594508460001461223157508401546001600160a01b0316935b01548361243d565b825193845260208401526001600160a01b031690820152a2565b8501546001600160a01b031694905061220f565b81548110156123ba57908160ff600361225f869585611c7b565b50015460081c1661227b575b61227490611d0f565b90916121bc565b909150878461228a8385611c7b565b500154111561239c5760146122ac89866122a48587611c7b565b500154612174565b11612332575b600480546001600160a01b0390811691906122cd8486611c7b565b50541690823b1561232e579060448892838c519586948593632ce962cf60e01b85528401528160248401525af18015612324579161227491859493612315575b50905061226b565b61231e90611b0f565b3861230d565b88513d88823e3d90fd5b8780fd5b600480546001600160a01b03908116919061234d8486611c7b565b50541690823b1561232e579060448892838c5195869485936302fb4d8560e01b85528401526103e860248401525af180156123245761238d575b506122b2565b61239690611b0f565b38612387565b60146123b5856123ac8486611c7b565b5001548a612174565b6122ac565b6121c1565b634e487b7160e01b85526012600452602485fd5b60ff60036123e1838d611c7b565b50015460081c166123fb575b6123f690611d0f565b6121a8565b929185612408858c611c7b565b5001548101809111612429576124216123f69193611d0f565b9390506123ed565b634e487b7160e01b87526011600452602487fd5b60008080809481945af1903d156124d2573d9067ffffffffffffffff82116124be5760405191612477601f8201601f191660200184611b23565b825260203d92013e5b1561248757565b60405162461bcd60e51b815260206004820152600f60248201526e151c985b9cd9995c8819985a5b1959608a1b6044820152606490fd5b634e487b7160e01b81526041600452602490fd5b50612480565b67ffffffffffffffff811161054d5760051b6020019056fe3650c68c63e76b8753bf7b55486399babb3b9b783a900219c7adecb43982f979a264697066735822122070294d1523b30e197837fce9d50967c440c3a0bbaf095469e8be8fc1e558bcca64736f6c63430008140033",
  "devdoc": {
    "kind": "dev",
    "methods": {},
    "title": "ArbiterEscrow - Agent 协作条件结算协议",
    "version": 1
  },
  "userdoc": {
    "kind": "user",
    "methods": {},
    "notice": "ZK pass/fail 门槛 + Commit-Reveal Jury 主观裁决 + 条件 Escrow 结算",
    "version": 1
  },
  "storageLayout": {
    "storage": [
      {
        "astId": 79,
        "contract": "contracts/ArbiterEscrow.sol:ArbiterEscrow",
        "label": "taskCount",
        "offset": 0,
        "slot": "0",
        "type": "t_uint256"
      },
      {
        "astId": 84,
        "contract": "contracts/ArbiterEscrow.sol:ArbiterEscrow",
        "label": "tasks",
        "offset": 0,
        "slot": "1",
        "type": "t_mapping(t_uint256,t_struct(Task)51_storage)"
      },
      {
        "astId": 90,
        "contract": "contracts/ArbiterEscrow.sol:ArbiterEscrow",
        "label": "juryRecords",
        "offset": 0,
        "slot": "2",
        "type": "t_mapping(t_uint256,t_array(t_struct(JuryRecord)62_storage)dyn_storage)"
      },
      {
        "astId": 96,
        "contract": "contracts/ArbiterEscrow.sol:ArbiterEscrow",
        "label": "juryIndex",
        "offset": 0,
        "slot": "3",
        "type": "t_mapping(t_uint256,t_mapping(t_address,t_uint256))"
      },
      {
        "astId": 99,
        "contract": "contracts/ArbiterEscrow.sol:ArbiterEscrow",
        "label": "juryRegistry",
        "offset": 0,
        "slot": "4",
        "type": "t_contract(JuryRegistry)1805"
      },
      {
        "astId": 102,
        "contract": "contracts/ArbiterEscrow.sol:ArbiterEscrow",
        "label": "verifier",
        "offset": 0,
        "slot": "5",
        "type": "t_contract(IVerifier)1461"
      }
    ],
    "types": {
      "t_address": {
        "encoding": "inplace",
        "label": "address",
        "numberOfBytes": "20"
      },
      "t_array(t_struct(JuryRecord)62_storage)dyn_storage": {
        "base": "t_struct(JuryRecord)62_storage",
        "encoding": "dynamic_array",
        "label": "struct ArbiterEscrow.JuryRecord[]",
        "numberOfBytes": "32"
      },
      "t_bool": {
        "encoding": "inplace",
        "label": "bool",
        "numberOfBytes": "1"
      },
      "t_bytes32": {
        "encoding": "inplace",
        "label": "bytes32",
        "numberOfBytes": "32"
      },
      "t_contract(IVerifier)1461": {
        "encoding": "inplace",
        "label": "contract IVerifier",
        "numberOfBytes": "20"
      },
      "t_contract(JuryRegistry)1805": {
        "encoding": "inplace",
        "label": "contract JuryRegistry",
        "numberOfBytes": "20"
      },
      "t_enum(Status)9": {
        "encoding": "inplace",
        "label": "enum ArbiterEscrow.Status",
        "numberOfBytes": "1"
      },
      "t_mapping(t_address,t_uint256)": {
        "encoding": "mapping",
        "key": "t_address",
        "label": "mapping(address => uint256)",
        "numberOfBytes": "32",
        "value": "t_uint256"
      },
      "t_mapping(t_uint256,t_array(t_struct(JuryRecord)62_storage)dyn_storage)": {
        "encoding": "mapping",
        "key": "t_uint256",
        "label": "mapping(uint256 => struct ArbiterEscrow.JuryRecord[])",
        "numberOfBytes": "32",
        "value": "t_array(t_struct(JuryRecord)62_storage)dyn_storage"
      },
      "t_mapping(t_uint256,t_mapping(t_address,t_uint256))": {
        "encoding": "mapping",
        "key": "t_uint256",
        "label": "mapping(uint256 => mapping(address => uint256))",
        "numberOfBytes": "32",
        "value": "t_mapping(t_address,t_uint256)"
      },
      "t_mapping(t_uint256,t_struct(Task)51_storage)": {
        "encoding": "mapping",
        "key": "t_uint256",
        "label": "mapping(uint256 => struct ArbiterEscrow.Task)",
        "numberOfBytes": "32",
        "value": "t_struct(Task)51_storage"
      },
      "t_string_storage": {
        "encoding": "bytes",
        "label": "string",
        "numberOfBytes": "32"
      },
      "t_struct(JuryRecord)62_storage": {
        "encoding": "inplace",
        "label": "struct ArbiterEscrow.JuryRecord",
        "members": [
          {
            "astId": 53,
            "contract": "contracts/ArbiterEscrow.sol:ArbiterEscrow",
            "label": "juror",
            "offset": 0,
            "slot": "0",
            "type": "t_address"
          },
          {
            "astId": 55,
            "contract": "contracts/ArbiterEscrow.sol:ArbiterEscrow",
            "label": "scoreHash",
            "offset": 0,
            "slot": "1",
            "type": "t_bytes32"
          },
          {
            "astId": 57,
            "contract": "contracts/ArbiterEscrow.sol:ArbiterEscrow",
            "label": "score",
            "offset": 0,
            "slot": "2",
            "type": "t_uint256"
          },
          {
            "astId": 59,
            "contract": "contracts/ArbiterEscrow.sol:ArbiterEscrow",
            "label": "committed",
            "offset": 0,
            "slot": "3",
            "type": "t_bool"
          },
          {
            "astId": 61,
            "contract": "contracts/ArbiterEscrow.sol:ArbiterEscrow",
            "label": "revealed",
            "offset": 1,
            "slot": "3",
            "type": "t_bool"
          }
        ],
        "numberOfBytes": "128"
      },
      "t_struct(ObjectiveCriteria)16_storage": {
        "encoding": "inplace",
        "label": "struct ArbiterEscrow.ObjectiveCriteria",
        "members": [
          {
            "astId": 11,
            "contract": "contracts/ArbiterEscrow.sol:ArbiterEscrow",
            "label": "minLength",
            "offset": 0,
            "slot": "0",
            "type": "t_uint256"
          },
          {
            "astId": 13,
            "contract": "contracts/ArbiterEscrow.sol:ArbiterEscrow",
            "label": "minFieldCount",
            "offset": 0,
            "slot": "1",
            "type": "t_uint256"
          },
          {
            "astId": 15,
            "contract": "contracts/ArbiterEscrow.sol:ArbiterEscrow",
            "label": "fieldListHash",
            "offset": 0,
            "slot": "2",
            "type": "t_bytes32"
          }
        ],
        "numberOfBytes": "96"
      },
      "t_struct(Task)51_storage": {
        "encoding": "inplace",
        "label": "struct ArbiterEscrow.Task",
        "members": [
          {
            "astId": 18,
            "contract": "contracts/ArbiterEscrow.sol:ArbiterEscrow",
            "label": "id",
            "offset": 0,
            "slot": "0",
            "type": "t_uint256"
          },
          {
            "astId": 20,
            "contract": "contracts/ArbiterEscrow.sol:ArbiterEscrow",
            "label": "payer",
            "offset": 0,
            "slot": "1",
            "type": "t_address"
          },
          {
            "astId": 22,
            "contract": "contracts/ArbiterEscrow.sol:ArbiterEscrow",
            "label": "worker",
            "offset": 0,
            "slot": "2",
            "type": "t_address"
          },
          {
            "astId": 24,
            "contract": "contracts/ArbiterEscrow.sol:ArbiterEscrow",
            "label": "escrow",
            "offset": 0,
            "slot": "3",
            "type": "t_uint256"
          },
          {
            "astId": 26,
            "contract": "contracts/ArbiterEscrow.sol:ArbiterEscrow",
            "label": "deadline",
            "offset": 0,
            "slot": "4",
            "type": "t_uint256"
          },
          {
            "astId": 29,
            "contract": "contracts/ArbiterEscrow.sol:ArbiterEscrow",
            "label": "status",
            "offset": 0,
            "slot": "5",
            "type": "t_enum(Status)9"
          },
          {
            "astId": 32,
            "contract": "contracts/ArbiterEscrow.sol:ArbiterEscrow",
            "label": "objective",
            "offset": 0,
            "slot": "6",
            "type": "t_struct(ObjectiveCriteria)16_storage"
          },
          {
            "astId": 34,
            "contract": "contracts/ArbiterEscrow.sol:ArbiterEscrow",
            "label": "subjectiveCriteria",
            "offset": 0,
            "slot": "9",
            "type": "t_string_storage"
          },
          {
            "astId": 36,
            "contract": "contracts/ArbiterEscrow.sol:ArbiterEscrow",
            "label": "minScore",
            "offset": 0,
            "slot": "10",
            "type": "t_uint256"
          },
          {
            "astId": 38,
            "contract": "contracts/ArbiterEscrow.sol:ArbiterEscrow",
            "label": "resultCommitment",
            "offset": 0,
            "slot": "11",
            "type": "t_bytes32"
          },
          {
            "astId": 40,
            "contract": "contracts/ArbiterEscrow.sol:ArbiterEscrow",
            "label": "resultURI",
            "offset": 0,
            "slot": "12",
            "type": "t_string_storage"
          },
          {
            "astId": 42,
            "contract": "contracts/ArbiterEscrow.sol:ArbiterEscrow",
            "label": "juryCount",
            "offset": 0,
            "slot": "13",
            "type": "t_uint256"
          },
          {
            "astId": 44,
            "contract": "contracts/ArbiterEscrow.sol:ArbiterEscrow",
            "label": "juryCommitted",
            "offset": 0,
            "slot": "14",
            "type": "t_uint256"
          },
          {
            "astId": 46,
            "contract": "contracts/ArbiterEscrow.sol:ArbiterEscrow",
            "label": "juryRevealed",
            "offset": 0,
            "slot": "15",
            "type": "t_uint256"
          },
          {
            "astId": 48,
            "contract": "contracts/ArbiterEscrow.sol:ArbiterEscrow",
            "label": "commitDeadline",
            "offset": 0,
            "slot": "16",
            "type": "t_uint256"
          },
          {
            "astId": 50,
            "contract": "contracts/ArbiterEscrow.sol:ArbiterEscrow",
            "label": "revealDeadline",
            "offset": 0,
            "slot": "17",
            "type": "t_uint256"
          }
        ],
        "numberOfBytes": "576"
      },
      "t_uint256": {
        "encoding": "inplace",
        "label": "uint256",
        "numberOfBytes": "32"
      }
    }
  }
}