{
  "address": "0xD7f22e2c4ef4127c4B93e027c041a91E22635679",
  "abi": [
    {
      "inputs": [
        {
          "internalType": "address",
          "name": "_verifier",
          "type": "address"
        },
        {
          "internalType": "address",
          "name": "_juryRegistry",
          "type": "address"
        }
      ],
      "stateMutability": "nonpayable",
      "type": "constructor"
    },
    {
      "anonymous": false,
      "inputs": [
        {
          "indexed": true,
          "internalType": "address",
          "name": "agent",
          "type": "address"
        },
        {
          "indexed": false,
          "internalType": "uint256",
          "name": "tasksCompleted",
          "type": "uint256"
        },
        {
          "indexed": false,
          "internalType": "uint256",
          "name": "tasksFailed",
          "type": "uint256"
        },
        {
          "indexed": false,
          "internalType": "uint256",
          "name": "totalScore",
          "type": "uint256"
        }
      ],
      "name": "AgentStatsUpdated",
      "type": "event"
    },
    {
      "anonymous": false,
      "inputs": [
        {
          "indexed": true,
          "internalType": "uint256",
          "name": "taskId",
          "type": "uint256"
        },
        {
          "indexed": false,
          "internalType": "address",
          "name": "juror",
          "type": "address"
        }
      ],
      "name": "ScoreCommitted",
      "type": "event"
    },
    {
      "anonymous": false,
      "inputs": [
        {
          "indexed": true,
          "internalType": "uint256",
          "name": "taskId",
          "type": "uint256"
        },
        {
          "indexed": false,
          "internalType": "address",
          "name": "juror",
          "type": "address"
        },
        {
          "indexed": false,
          "internalType": "uint256",
          "name": "score",
          "type": "uint256"
        }
      ],
      "name": "ScoreRevealed",
      "type": "event"
    },
    {
      "anonymous": false,
      "inputs": [
        {
          "indexed": true,
          "internalType": "uint256",
          "name": "taskId",
          "type": "uint256"
        },
        {
          "indexed": false,
          "internalType": "address",
          "name": "worker",
          "type": "address"
        }
      ],
      "name": "TaskAccepted",
      "type": "event"
    },
    {
      "anonymous": false,
      "inputs": [
        {
          "indexed": true,
          "internalType": "uint256",
          "name": "taskId",
          "type": "uint256"
        },
        {
          "indexed": false,
          "internalType": "address",
          "name": "payer",
          "type": "address"
        },
        {
          "indexed": false,
          "internalType": "address",
          "name": "worker",
          "type": "address"
        },
        {
          "indexed": false,
          "internalType": "uint256",
          "name": "escrow",
          "type": "uint256"
        },
        {
          "indexed": false,
          "internalType": "uint256",
          "name": "minScore",
          "type": "uint256"
        }
      ],
      "name": "TaskCreated",
      "type": "event"
    },
    {
      "anonymous": false,
      "inputs": [
        {
          "indexed": true,
          "internalType": "uint256",
          "name": "taskId",
          "type": "uint256"
        },
        {
          "indexed": false,
          "internalType": "uint256",
          "name": "finalScore",
          "type": "uint256"
        },
        {
          "indexed": false,
          "internalType": "bool",
          "name": "passed",
          "type": "bool"
        },
        {
          "indexed": false,
          "internalType": "address",
          "name": "recipient",
          "type": "address"
        }
      ],
      "name": "TaskResolved",
      "type": "event"
    },
    {
      "anonymous": false,
      "inputs": [
        {
          "indexed": true,
          "internalType": "uint256",
          "name": "taskId",
          "type": "uint256"
        },
        {
          "indexed": false,
          "internalType": "string",
          "name": "resultURI",
          "type": "string"
        }
      ],
      "name": "ZKPassed",
      "type": "event"
    },
    {
      "inputs": [],
      "name": "COMMIT_WINDOW",
      "outputs": [
        {
          "internalType": "uint256",
          "name": "",
          "type": "uint256"
        }
      ],
      "stateMutability": "view",
      "type": "function"
    },
    {
      "inputs": [],
      "name": "MAX_DEVIATION",
      "outputs": [
        {
          "internalType": "uint256",
          "name": "",
          "type": "uint256"
        }
      ],
      "stateMutability": "view",
      "type": "function"
    },
    {
      "inputs": [],
      "name": "REVEAL_WINDOW",
      "outputs": [
        {
          "internalType": "uint256",
          "name": "",
          "type": "uint256"
        }
      ],
      "stateMutability": "view",
      "type": "function"
    },
    {
      "inputs": [],
      "name": "SLASH_DEVIATION_BPS",
      "outputs": [
        {
          "internalType": "uint256",
          "name": "",
          "type": "uint256"
        }
      ],
      "stateMutability": "view",
      "type": "function"
    },
    {
      "inputs": [],
      "name": "SLASH_NO_REVEAL_BPS",
      "outputs": [
        {
          "internalType": "uint256",
          "name": "",
          "type": "uint256"
        }
      ],
      "stateMutability": "view",
      "type": "function"
    },
    {
      "inputs": [
        {
          "internalType": "uint256",
          "name": "taskId",
          "type": "uint256"
        }
      ],
      "name": "acceptTask",
      "outputs": [],
      "stateMutability": "nonpayable",
      "type": "function"
    },
    {
      "inputs": [
        {
          "internalType": "address",
          "name": "",
          "type": "address"
        }
      ],
      "name": "agentStats",
      "outputs": [
        {
          "internalType": "uint256",
          "name": "tasksCompleted",
          "type": "uint256"
        },
        {
          "internalType": "uint256",
          "name": "tasksFailed",
          "type": "uint256"
        },
        {
          "internalType": "uint256",
          "name": "totalScore",
          "type": "uint256"
        }
      ],
      "stateMutability": "view",
      "type": "function"
    },
    {
      "inputs": [
        {
          "internalType": "uint256",
          "name": "taskId",
          "type": "uint256"
        }
      ],
      "name": "claimTimeout",
      "outputs": [],
      "stateMutability": "nonpayable",
      "type": "function"
    },
    {
      "inputs": [
        {
          "internalType": "uint256",
          "name": "taskId",
          "type": "uint256"
        },
        {
          "internalType": "bytes32",
          "name": "scoreHash",
          "type": "bytes32"
        }
      ],
      "name": "commitScore",
      "outputs": [],
      "stateMutability": "nonpayable",
      "type": "function"
    },
    {
      "inputs": [
        {
          "internalType": "address",
          "name": "worker",
          "type": "address"
        },
        {
          "components": [
            {
              "internalType": "uint256",
              "name": "minLength",
              "type": "uint256"
            },
            {
              "internalType": "uint256",
              "name": "minFieldCount",
              "type": "uint256"
            },
            {
              "internalType": "bytes32",
              "name": "fieldListHash",
              "type": "bytes32"
            }
          ],
          "internalType": "struct ArbiterEscrow.ObjectiveCriteria",
          "name": "objective",
          "type": "tuple"
        },
        {
          "internalType": "string",
          "name": "subjectiveCriteria",
          "type": "string"
        },
        {
          "internalType": "uint256",
          "name": "minScore",
          "type": "uint256"
        },
        {
          "internalType": "uint256",
          "name": "juryCount",
          "type": "uint256"
        },
        {
          "internalType": "uint256",
          "name": "deadline",
          "type": "uint256"
        },
        {
          "internalType": "uint256",
          "name": "juryReward",
          "type": "uint256"
        }
      ],
      "name": "createTask",
      "outputs": [
        {
          "internalType": "uint256",
          "name": "taskId",
          "type": "uint256"
        }
      ],
      "stateMutability": "payable",
      "type": "function"
    },
    {
      "inputs": [
        {
          "internalType": "address",
          "name": "agent",
          "type": "address"
        }
      ],
      "name": "getAgentStats",
      "outputs": [
        {
          "components": [
            {
              "internalType": "uint256",
              "name": "tasksCompleted",
              "type": "uint256"
            },
            {
              "internalType": "uint256",
              "name": "tasksFailed",
              "type": "uint256"
            },
            {
              "internalType": "uint256",
              "name": "totalScore",
              "type": "uint256"
            }
          ],
          "internalType": "struct ArbiterEscrow.AgentStats",
          "name": "",
          "type": "tuple"
        }
      ],
      "stateMutability": "view",
      "type": "function"
    },
    {
      "inputs": [
        {
          "internalType": "uint256",
          "name": "taskId",
          "type": "uint256"
        }
      ],
      "name": "getAssignedJurors",
      "outputs": [
        {
          "internalType": "address[]",
          "name": "",
          "type": "address[]"
        }
      ],
      "stateMutability": "view",
      "type": "function"
    },
    {
      "inputs": [
        {
          "internalType": "uint256",
          "name": "taskId",
          "type": "uint256"
        }
      ],
      "name": "getJuryRecords",
      "outputs": [
        {
          "components": [
            {
              "internalType": "address",
              "name": "juror",
              "type": "address"
            },
            {
              "internalType": "bytes32",
              "name": "scoreHash",
              "type": "bytes32"
            },
            {
              "internalType": "uint256",
              "name": "score",
              "type": "uint256"
            },
            {
              "internalType": "bool",
              "name": "committed",
              "type": "bool"
            },
            {
              "internalType": "bool",
              "name": "revealed",
              "type": "bool"
            }
          ],
          "internalType": "struct ArbiterEscrow.JuryRecord[]",
          "name": "",
          "type": "tuple[]"
        }
      ],
      "stateMutability": "view",
      "type": "function"
    },
    {
      "inputs": [
        {
          "internalType": "uint256",
          "name": "taskId",
          "type": "uint256"
        }
      ],
      "name": "getTask",
      "outputs": [
        {
          "components": [
            {
              "internalType": "uint256",
              "name": "id",
              "type": "uint256"
            },
            {
              "internalType": "address",
              "name": "payer",
              "type": "address"
            },
            {
              "internalType": "address",
              "name": "worker",
              "type": "address"
            },
            {
              "internalType": "uint256",
              "name": "escrow",
              "type": "uint256"
            },
            {
              "internalType": "uint256",
              "name": "juryReward",
              "type": "uint256"
            },
            {
              "internalType": "uint256",
              "name": "deadline",
              "type": "uint256"
            },
            {
              "internalType": "enum ArbiterEscrow.Status",
              "name": "status",
              "type": "uint8"
            },
            {
              "components": [
                {
                  "internalType": "uint256",
                  "name": "minLength",
                  "type": "uint256"
                },
                {
                  "internalType": "uint256",
                  "name": "minFieldCount",
                  "type": "uint256"
                },
                {
                  "internalType": "bytes32",
                  "name": "fieldListHash",
                  "type": "bytes32"
                }
              ],
              "internalType": "struct ArbiterEscrow.ObjectiveCriteria",
              "name": "objective",
              "type": "tuple"
            },
            {
              "internalType": "string",
              "name": "subjectiveCriteria",
              "type": "string"
            },
            {
              "internalType": "uint256",
              "name": "minScore",
              "type": "uint256"
            },
            {
              "internalType": "bytes32",
              "name": "resultCommitment",
              "type": "bytes32"
            },
            {
              "internalType": "string",
              "name": "resultURI",
              "type": "string"
            },
            {
              "internalType": "uint256",
              "name": "juryCount",
              "type": "uint256"
            },
            {
              "internalType": "uint256",
              "name": "juryCommitted",
              "type": "uint256"
            },
            {
              "internalType": "uint256",
              "name": "juryRevealed",
              "type": "uint256"
            },
            {
              "internalType": "uint256",
              "name": "commitDeadline",
              "type": "uint256"
            },
            {
              "internalType": "uint256",
              "name": "revealDeadline",
              "type": "uint256"
            }
          ],
          "internalType": "struct ArbiterEscrow.Task",
          "name": "",
          "type": "tuple"
        }
      ],
      "stateMutability": "view",
      "type": "function"
    },
    {
      "inputs": [
        {
          "internalType": "uint256",
          "name": "",
          "type": "uint256"
        },
        {
          "internalType": "address",
          "name": "",
          "type": "address"
        }
      ],
      "name": "juryIndex",
      "outputs": [
        {
          "internalType": "uint256",
          "name": "",
          "type": "uint256"
        }
      ],
      "stateMutability": "view",
      "type": "function"
    },
    {
      "inputs": [
        {
          "internalType": "uint256",
          "name": "",
          "type": "uint256"
        },
        {
          "internalType": "uint256",
          "name": "",
          "type": "uint256"
        }
      ],
      "name": "juryRecords",
      "outputs": [
        {
          "internalType": "address",
          "name": "juror",
          "type": "address"
        },
        {
          "internalType": "bytes32",
          "name": "scoreHash",
          "type": "bytes32"
        },
        {
          "internalType": "uint256",
          "name": "score",
          "type": "uint256"
        },
        {
          "internalType": "bool",
          "name": "committed",
          "type": "bool"
        },
        {
          "internalType": "bool",
          "name": "revealed",
          "type": "bool"
        }
      ],
      "stateMutability": "view",
      "type": "function"
    },
    {
      "inputs": [],
      "name": "juryRegistry",
      "outputs": [
        {
          "internalType": "contract JuryRegistry",
          "name": "",
          "type": "address"
        }
      ],
      "stateMutability": "view",
      "type": "function"
    },
    {
      "inputs": [
        {
          "internalType": "uint256",
          "name": "taskId",
          "type": "uint256"
        },
        {
          "internalType": "uint256",
          "name": "score",
          "type": "uint256"
        },
        {
          "internalType": "bytes32",
          "name": "salt",
          "type": "bytes32"
        }
      ],
      "name": "revealScore",
      "outputs": [],
      "stateMutability": "nonpayable",
      "type": "function"
    },
    {
      "inputs": [
        {
          "internalType": "uint256",
          "name": "taskId",
          "type": "uint256"
        },
        {
          "internalType": "bytes32",
          "name": "resultCommitment",
          "type": "bytes32"
        },
        {
          "internalType": "string",
          "name": "resultURI",
          "type": "string"
        },
        {
          "internalType": "uint256[2]",
          "name": "proofA",
          "type": "uint256[2]"
        },
        {
          "internalType": "uint256[2][2]",
          "name": "proofB",
          "type": "uint256[2][2]"
        },
        {
          "internalType": "uint256[2]",
          "name": "proofC",
          "type": "uint256[2]"
        },
        {
          "internalType": "uint256[3]",
          "name": "publicSignals",
          "type": "uint256[3]"
        }
      ],
      "name": "submitResult",
      "outputs": [],
      "stateMutability": "nonpayable",
      "type": "function"
    },
    {
      "inputs": [],
      "name": "taskCount",
      "outputs": [
        {
          "internalType": "uint256",
          "name": "",
          "type": "uint256"
        }
      ],
      "stateMutability": "view",
      "type": "function"
    },
    {
      "inputs": [
        {
          "internalType": "uint256",
          "name": "",
          "type": "uint256"
        }
      ],
      "name": "tasks",
      "outputs": [
        {
          "internalType": "uint256",
          "name": "id",
          "type": "uint256"
        },
        {
          "internalType": "address",
          "name": "payer",
          "type": "address"
        },
        {
          "internalType": "address",
          "name": "worker",
          "type": "address"
        },
        {
          "internalType": "uint256",
          "name": "escrow",
          "type": "uint256"
        },
        {
          "internalType": "uint256",
          "name": "juryReward",
          "type": "uint256"
        },
        {
          "internalType": "uint256",
          "name": "deadline",
          "type": "uint256"
        },
        {
          "internalType": "enum ArbiterEscrow.Status",
          "name": "status",
          "type": "uint8"
        },
        {
          "components": [
            {
              "internalType": "uint256",
              "name": "minLength",
              "type": "uint256"
            },
            {
              "internalType": "uint256",
              "name": "minFieldCount",
              "type": "uint256"
            },
            {
              "internalType": "bytes32",
              "name": "fieldListHash",
              "type": "bytes32"
            }
          ],
          "internalType": "struct ArbiterEscrow.ObjectiveCriteria",
          "name": "objective",
          "type": "tuple"
        },
        {
          "internalType": "string",
          "name": "subjectiveCriteria",
          "type": "string"
        },
        {
          "internalType": "uint256",
          "name": "minScore",
          "type": "uint256"
        },
        {
          "internalType": "bytes32",
          "name": "resultCommitment",
          "type": "bytes32"
        },
        {
          "internalType": "string",
          "name": "resultURI",
          "type": "string"
        },
        {
          "internalType": "uint256",
          "name": "juryCount",
          "type": "uint256"
        },
        {
          "internalType": "uint256",
          "name": "juryCommitted",
          "type": "uint256"
        },
        {
          "internalType": "uint256",
          "name": "juryRevealed",
          "type": "uint256"
        },
        {
          "internalType": "uint256",
          "name": "commitDeadline",
          "type": "uint256"
        },
        {
          "internalType": "uint256",
          "name": "revealDeadline",
          "type": "uint256"
        }
      ],
      "stateMutability": "view",
      "type": "function"
    },
    {
      "inputs": [],
      "name": "verifier",
      "outputs": [
        {
          "internalType": "contract IVerifier",
          "name": "",
          "type": "address"
        }
      ],
      "stateMutability": "view",
      "type": "function"
    }
  ],
  "transactionHash": "0x3dd4169190b42461460e34255dc9e08f48e81f203670e2d9ac695bfdf290fc8b",
  "args": [
    "0x33E414c7Cf0856076348329E7402DBB3744584bF",
    "0xFdFF0CeBdBA0B296aa6138B6CC36fc0d628746e6"
  ],
  "numDeployments": 2,
  "solcInputHash": "b8f02ff536564a625078027cefb6ebdd",
  "bytecode": "0x6080346200009657601f620028a638819003918201601f19168301916001600160401b038311848410176200009b57808492604094855283398101031262000096576200005a60206200005283620000b1565b9201620000b1565b600680546001600160a01b039384166001600160a01b031991821617909155600580549290931691161790556040516127df9081620000c78239f35b600080fd5b634e487b7160e01b600052604160045260246000fd5b51906001600160a01b0382168203620000965756fe61010080604052600436101561001457600080fd5b60003560e01c908163097fba82146117f25750806317e931cf146102d15780631bf6912d146117395780631d65e77e1461149b5780632b7ac3f31461147257806335b05ec1146113be578063690b06b6146113a15780636dbacf4914611342578063762ff4dc146112f557806377cbc400146110e057806386e773f1146110c45780638b1e45491461109b5780638d97767214610f18578063a386900114610c68578063b05f233a14610c4c578063b5695b3814610bd5578063b6cb58a514610bb7578063b83a5203146102d6578063e97f6a68146102d1578063eae738dc146102b4578063eb6e6c1c146102365763fea27aa91461011257600080fd5b346102315760208060031936011261023157600435600052600290818152604060002091825461014181612671565b9161014f6040519384611c67565b81835260009485528385208484019591865b8484106101d857604080518881528751818a018190528a928201908a60005b82811061018d5784840385f35b855180516001600160a01b031685528083015185840152604080820151908601526060808201511515908601526080908101511515908501529481019460a090930192600101610180565b6004876001926040516101ea81611c37565b848060a01b0387541681528487015483820152858701546040820152600387015460ff908181161515606084015260081c1615156080820152815201930193019291610161565b600080fd5b34610231576040366003190112610231576024356004356000526002602052604060002080548210156102315760a09161026f91611d91565b5060ff600180841b03825416916001810154906003600282015491015491604051948552602085015260408401528181161515606084015260081c1615156080820152f35b346102315760003660031901126102315760206040516103e88152f35b611b94565b34610231576101c03660031901126102315760443567ffffffffffffffff811161023157610308903690600401611b66565b903660a41161023157366101241161023157366101641161023157366101c411610231576004356000526001602052604060002060ff6006820154166005811015610ba157600103610b6d5761036b60018060a01b036002830154163314611e6a565b61037b6005820154421115611dfd565b60078101546101643503610b335760088101546101843503610af9576024356101a43503610abe57600654604080516308a3cff560e11b8152916001600160a01b031690606460048401378160a46000604483015b60028210610aa45750505061016481602093604061012460c48401376060836101048401375afa9081156106be57600091610a85575b5015610a4d57602435600c82015567ffffffffffffffff83116106e057610430600d820154611cb1565b601f8111610a06575b50826000601f82116001146109985760009161098d575b508360011b906000198560031b1c191617600d8201555b60068101805460ff191660021790554261012c81011061097757601161012c4201910155600435600052600160205260406000209160018060a01b03600554169160405192637092a91d60e11b8452602084600481845afa9384156106be57600094610943575b506104d884612689565b9360009160005b82811061083257505050600e8501548082106107ed5760405142602082015244604082015260043560608201526060815280608081011067ffffffffffffffff6080830111176106e057608081016040526020815191012060005b82811061074c575050505060005b600e8501548110156106f6576001600160a01b0361056682866126bb565b511690600435600052600260205260406000206040519061058682611c37565b838252600060208301526000604083015260006060830152600060808301528054680100000000000000008110156106e0576105c791600182018155611d91565b9190916106ca5760018060a01b038151166bffffffffffffffffffffffff60a01b8354161782556020810151600183015560408101516002830155600380920190606081015115159060ff61ff0060808554930151151560081b1692169061ffff19161717905560043560005260026020526040600020549060205260406000208360005260205260406000205560018060a01b036005541691823b1561023157600092604484926040519586938492632ce962cf60e01b84526004840152600160248401525af19081156106be57600e926106a8926106af575b50611e4e565b9050610548565b6106b890611c53565b876106a2565b6040513d6000823e3d90fd5b634e487b7160e01b600052600060045260246000fd5b634e487b7160e01b600052604160045260246000fd5b507f5d0934175fbdf2ea7c537c62ca98fc339cf5aef1ac86ef8cbc5e89b91b41772b90826040519160208352816020840152604083013760006040848301015260408160043594601f80199101168101030190a2005b60405160208101908382528260408201526040815261076a81611c1b565b519020906107788186611e5d565b9182156107d7576107d29261078e910682611ebb565b6001600160a01b036107a0828b6126bb565b5116906107c16001600160a01b036107b8858d6126bb565b5116918b6126bb565b526107cc828a6126bb565b52611e4e565b61053a565b634e487b7160e01b600052601260045260246000fd5b60405162461bcd60e51b815260206004820152601a60248201527f4e6f7420656e6f75676820656c696769626c65206a75726f72730000000000006044820152606490fd5b604051630a03854560e41b815260048101829052602081602481865afa9081156106be57600091610901575b506040516366e305fd60e01b81526001600160a01b0382166004820152602081602481875afa9081156106be576000916108d2575b506108a8575b506108a390611e4e565b6104df565b936108a391906108cb6108ba82611e4e565b966001600160a01b0316918a6126bb565b5290610899565b6108f4915060203d6020116108fa575b6108ec8183611c67565b810190611ea3565b8a610893565b503d6108e2565b90506020813d60201161093b575b8161091c60209383611c67565b8101031261023157516001600160a01b0381168103610231578961085e565b3d915061090f565b9093506020813d60201161096f575b8161095f60209383611c67565b81010312610231575192856104ce565b3d9150610952565b634e487b7160e01b600052601160045260246000fd5b905082013584610450565b9050600d820160005260206000209060005b601f19861681106109ee575084601f198116106109d4575b5050600183811b01600d820155610467565b830135600019600386901b60f8161c1916905583806109c2565b909160206001819285880135815501930191016109aa565b600d82016000526020600020601f850160051c810160208610610a46575b601f830160051c82018110610a3a575050610439565b60008155600101610a24565b5080610a24565b60405162461bcd60e51b815260206004820152601060248201526f1692c81c1c9bdbd9881a5b9d985b1a5960821b6044820152606490fd5b610a9e915060203d6020116108fa576108ec8183611c67565b84610406565b8293506040818160019495819437019301910184926103d0565b60405162461bcd60e51b81526020600482015260136024820152720c6dedadad2e8dacadce840dad2e6dac2e8c6d606b1b6044820152606490fd5b60405162461bcd60e51b81526020600482015260126024820152710dad2dc8cd2cad8c8e640dad2e6dac2e8c6d60731b6044820152606490fd5b60405162461bcd60e51b81526020600482015260126024820152710dad2dc98cadccee8d040dad2e6dac2e8c6d60731b6044820152606490fd5b60405162461bcd60e51b815260206004820152600c60248201526b139bdd081058d8d95c1d195960a21b6044820152606490fd5b634e487b7160e01b600052602160045260246000fd5b34610231576000366003190112610231576020600054604051908152f35b3461023157602036600319011261023157610bee611b50565b610bf661276a565b5060018060a01b0316600052600460205260606040600020604051610c1a81611c1b565b815491828252604060026001830154926020850193845201549201918252604051928352516020830152516040820152f35b3461023157600036600319011261023157602060405160148152f35b346102315760603660031901126102315760043560248035908260005260206001815260406000209160ff6006840154166005811015610f0357600303610ecd5760128301548015610e94574211610e5a57610cc76064851115611dc3565b84600052600382526040600020336000528252610d08610cf6604060002054610cf1811515611ec8565b611f08565b86600052600284526040600020611d91565b5090600382019182549160ff831615610e275760ff8360081c16610df157600182015460405186810190898252604435604082015260408152610d4a81611c1b565b51902003610dbe5750600e949387936101007fe3a512f2b722eba73136c0de5172e96c972b81970c46f27f849721a417c9ed0194896002604096015561ff0019161790556010850196610d9d8854611e4e565b809855825191338352820152a2015414610db357005b610dbc906122f0565b005b84600d6064926040519262461bcd60e51b845260048401528201526c090c2e6d040dad2e6dac2e8c6d609b1b6044820152fd5b8460106064926040519262461bcd60e51b845260048401528201526f105b1c9958591e481c995d99585b195960821b6044820152fd5b84600d6064926040519262461bcd60e51b845260048401528201526c139bdd0818dbdb5b5a5d1d1959609a1b6044820152fd5b9060146064926040519262461bcd60e51b845260048401528201527314995d99585b081dda5b991bddc818db1bdcd95960621b6044820152fd5b60405162461bcd60e51b8152600481018490526012818401527114995d99585b081b9bdd081cdd185c9d195960721b6044820152606490fd5b9060106064926040519262461bcd60e51b845260048401528201526f4e6f742064656c696265726174696e6760801b6044820152fd5b50634e487b7160e01b60009081526021600452fd5b3461023157602036600319011261023157600435600052600160205260406000208054600160a01b60019003918260018201541692600282015416608052600381015460c0526004810154926005820154600683015460ff1660078401610f7e90611c89565b90610f8b600a8601611ceb565b600b86015492600c87015492600d8801610fa490611ceb565b95600e89015460a052600f8901549a60108a01549860118b01549a601201549b6040518060e0525260e0516020015260805160e0516040015260c05160e0516060015260e0516080015260e05160a0015260e05160c00161100491611bb1565b60e05160e001611027916040809180518452602081015160208501520151910152565b6102608060e051610140015260e0510161104091611bbe565b9160e051610160015260e051610180015260e051808203906101a0015261106691611bbe565b9360a05160e0516101c0015260e0516101e0015260e051610200015260e051610220015260e051610240015260e05180910390f35b34610231576000366003190112610231576005546040516001600160a01b039091168152602090f35b3461023157602036600319011261023157610dbc600435611f15565b3461023157604036600319011261023157600435806000526020600181526040600020906006820160ff8154166005811015610ba157600281149081156112ea575b50156112b15760118301544211611275578360005260038252604060002033600052825261116f61115d604060002054610cf1811515611ec8565b85600052600284526040600020611d91565b50906003820180549260ff841661123c576001602435910155600160ff19809416179055600f8401916111a28354611e4e565b80935581549060ff82166005811015610ba15760021461122e575b505050600e830154146111f7575b7f832402fe0c2ab65bc597e7580443378f72b523c337d66efd7ae2b1bae8a5dfa19150604051338152a2005b61012c42018042116109775760127f832402fe0c2ab65bc597e7580443378f72b523c337d66efd7ae2b1bae8a5dfa19301556111cb565b1660031790558480806111bd565b60405162461bcd60e51b8152600481018690526011602482015270105b1c9958591e4818dbdb5b5a5d1d1959607a1b6044820152606490fd5b60405162461bcd60e51b815260048101839052601460248201527310dbdb5b5a5d081dda5b991bddc818db1bdcd95960621b6044820152606490fd5b60405162461bcd60e51b81526004810183905260116024820152704e6f7420696e206a75727920706861736560781b6044820152606490fd5b600391501485611122565b34610231576040366003190112610231576024356001600160a01b038116908190036102315760043560005260036020526040600020906000526020526020604060002054604051908152f35b34610231576020366003190112610231576001600160a01b03611363611b50565b1660005260046020526040600020805461139d60026001840154930154604051938493846040919493926060820195825260208201520152565b0390f35b346102315760003660031901126102315760206040516107d08152f35b346102315760208060031936011261023157600435600052600281526040600020908154916113ec83612689565b9260005b818110611445575050506040519181839283018184528251809152816040850193019160005b82811061142557505050500390f35b83516001600160a01b031685528695509381019392810192600101611416565b8061145561146a92859795611d91565b50546001600160a01b03166107cc82866126bb565b9391936113f0565b34610231576000366003190112610231576006546040516001600160a01b039091168152602090f35b346102315760203660031901126102315760006102006040516114bd81611bfe565b8281528260208201528260408201528260608201528260808201528260a08201528260c08201526114ec61276a565b60e082015260606101008201528261012082015282610140820152606061016082015282610180820152826101a0820152826101c0820152826101e08201520152600435600052600160205260406000206040519061154a82611bfe565b8054825260018101546001600160a01b0390811660208401526002820154166040830152600381015460608301526004810154608083015260058082015460a0840152600682015460ff169190821015610ba15760129160c08401526115b260078201611c89565b60e08401526115c3600a8201611ceb565b610100840152600b810154610120840152600c8101546101408401526115eb600d8201611ceb565b610160840152600e810154610180840152600f8101546101a084015260108101546101c084015260118101546101e084015201546102008201526040518091602082528051602083015260018060a01b03602082015116604083015260018060a01b03604082015116606083015260608101516080830152608081015160a083015260a081015160c083015261168960c082015160e0840190611bb1565b60e081015180516101008401526020810151610120840152604001516101408301526101008101516102006117006116d06102609384610160880152610280870190611bbe565b6101208501516101808701526101408501516101a0870152610160850151868203601f19016101c0880152611bbe565b926101808101516101e08601526101a0810151828601526101c08101516102208601526101e08101516102408601520151908301520390f35b346102315760203660031901126102315760043580600052600160205260406000206006810190815460ff81166005811015610ba1576117bf5761178c6001926002848060a01b03910154163314611e6a565b60ff19161790557fc8717b61398fb9d7cacf49fe1e296b2f10e9711226b532842b6ffd642cb6a2c66020604051338152a2005b60405162461bcd60e51b815260206004820152600b60248201526a139bdd0810dc99585d195960aa1b6044820152606490fd5b61012036600319011261023157611807611b50565b9060603660231901126102315767ffffffffffffffff9160843583811161023157611836903690600401611b66565b60e4359391926001600160a01b03169160a43591610104359160c43591908515611b1d57506118686064851115611dc3565b6001978883101580611b12575b15611ae257611885428911611dfd565b61188f8385611e3b565b9182341115611aac57600054976118a589611e4e565b600055886000526020998b8b526118ec6040600020958b87558d87016bffffffffffffffffffffffff60a01b9033828254161790558b600289019182541617905534611e5d565b9660038601978855600486015560058501556006840160ff198154169055602435600785015560443560088501556064356009850155600a84019282116106e0576119378354611cb1565b601f8111611a67575b509988999a600090601f84116001146119d0579280807f487933e034710db4f40e8db61e822d2fff54215ca95e11baff632af66e1fbab69b99979460809b999794600e976000946119c5575b50501b916000199060031b1c19161790555b84600b820155015554604051923384528884015260408301526060820152a2604051908152f35b01359250388061198c565b60008581528d81209394939290601f198516908f5b828210611a4d57505092600e959285927f487933e034710db4f40e8db61e822d2fff54215ca95e11baff632af66e1fbab69d9b999660809d9b999610611a33575b505050811b01905561199e565b0135600019600384901b60f8161c191690558e8080611a26565b8484013586558f9e509487019492830192908101906119e5565b836000528a600020601f840160051c8101918c8510611aa2575b601f0160051c01905b818110611a975750611940565b600081558c01611a8a565b9091508190611a81565b60405162461bcd60e51b815260206004820152600e60248201526d457363726f7720746f6f206c6f7760901b6044820152606490fd5b60405162461bcd60e51b81526020600482015260086024820152674a75727920312d3560c01b6044820152606490fd5b506005831115611875565b62461bcd60e51b815260206004820152600e60248201526d24b73b30b634b2103bb7b935b2b960911b6044820152606490fd5b600435906001600160a01b038216820361023157565b9181601f840112156102315782359167ffffffffffffffff8311610231576020838186019501011161023157565b3461023157600036600319011261023157602060405161012c8152f35b906005821015610ba15752565b919082519283825260005b848110611bea575050826000602080949584010152601f8019910116010190565b602081830181015184830182015201611bc9565b610220810190811067ffffffffffffffff8211176106e057604052565b6060810190811067ffffffffffffffff8211176106e057604052565b60a0810190811067ffffffffffffffff8211176106e057604052565b67ffffffffffffffff81116106e057604052565b90601f8019910116810190811067ffffffffffffffff8211176106e057604052565b90604051611c9681611c1b565b60406002829480548452600181015460208501520154910152565b90600182811c92168015611ce1575b6020831014611ccb57565b634e487b7160e01b600052602260045260246000fd5b91607f1691611cc0565b9060405191826000825492611cff84611cb1565b908184526001948581169081600014611d6e5750600114611d2b575b5050611d2992500383611c67565b565b9093915060005260209081600020936000915b818310611d56575050611d2993508201013880611d1b565b85548884018501529485019487945091830191611d3e565b915050611d2994506020925060ff191682840152151560051b8201013880611d1b565b8054821015611dad5760005260206000209060021b0190600090565b634e487b7160e01b600052603260045260246000fd5b15611dca57565b60405162461bcd60e51b815260206004820152600b60248201526a053636f7265203e203130360ac1b6044820152606490fd5b15611e0457565b60405162461bcd60e51b815260206004820152600f60248201526e111958591b1a5b99481c185cdcd959608a1b6044820152606490fd5b8181029291811591840414171561097757565b60001981146109775760010190565b9190820391821161097757565b15611e7157565b60405162461bcd60e51b815260206004820152600a6024820152692737ba103bb7b935b2b960b11b6044820152606490fd5b90816020910312610231575180151581036102315790565b9190820180921161097757565b15611ecf57565b60405162461bcd60e51b81526020600482015260116024820152704e6f742061737369676e6564206a75727960781b6044820152606490fd5b8015610977576000190190565b600090808252600190602092828452604092838220600681019182549260ff938481169060059182811015612267578481159182156122e6575b5050806122da575b61227b5750815485811682811015612267576002811490811561225c575b508061224f575b80612242575b80612231575b612199575084825416948186101561218557600380961480612178575b8061216b575b8061215a575b611ff957885162461bcd60e51b8152600481018b9052601860248201527f4e6f2074696d656f757420636f6e646974696f6e206d657400000000000000006044820152606490fd5b87875260028a528887209799989697849189835b612082575b5050505060108401541590506120325750505050505050611d29906122f0565b91612070606096949260008051602061278a833981519152989694600460ff1982541617905582019160018060a01b039384845416910154906126cf565b541691815193818552840152820152a2565b82548110156121555781896120978386611d91565b500154168061213b575b6120b5575b6120af90611e4e565b8361200d565b845492935090916001600160a01b03908116906120d28386611d91565b505416813b15612137578b91604483928d5194859384926302fb4d8560e01b845260048401526107d060248401525af1801561212d57916120af918895949361211e575b5090506120a6565b61212790611c53565b38612116565b8a513d8d823e3d90fd5b8b80fd5b5081896121488386611d91565b50015460081c16156120a1565b612012565b506010850154600e86015411611fb1565b5060128501544211611fab565b5060128501541515611fa5565b634e487b7160e01b87526021600452602487fd5b95979291989380979550600f91500194855415156000146121f257505050505054600e82015561012c4201918242116121de575060120155805460ff19166003179055565b634e487b7160e01b81526011600452602490fd5b6060969293955097600460008051602061278a83398151915298959960ff1916179055810161207060018060a01b0392600384845416910154906126cf565b50600f850154600e86015411611f88565b5060118501544211611f82565b5060118501541515611f7c565b600391501438611f75565b634e487b7160e01b88526021600452602488fd5b6060979996955060008051602061278a83398151915298949392915060049060ff19161790556122c260038301546122bc6004850154600e86015490611e3b565b90611ebb565b910180546001600160a01b03926120709184166126cf565b50818501544211611f57565b1490508438611f4f565b600081815260019081602052604090818120908093816002928360205285822096828854905b818110612615575050811561260157049581835b612454575b5050928492606095927f12a3d51dca0d24a99f0c80b5c2327724c3573bb8f138626697a697eb9b72c3fb60008051602061278a833981519152989660068501600460ff19825416179055600b850154881015938460001461243b57858101546001600160a01b0316956124129082905b6123ad60038201548a6126cf565b0180546001600160a01b0390811685526004602052989093209188908715612427576123d98454611e4e565b84555b8301936123ea8c8654611ebb565b8095555416948254920154928951938493846040919493926060820195825260208201520152565b0390a2835194855260208501521690820152a2565b8684016124348154611e4e565b90556123dc565b858401546001600160a01b03169561241290829061239f565b81548110156125fc57908160ff600361246e879585611d91565b50015460081c1661248a575b61248390611e4e565b909161232a565b90915087856124998385611d91565b50015411156125de5760146124bb89876124b38587611d91565b500154611e5d565b11612571575b6004808701548061254d575b506005546001600160a01b0390811691906124e88486611d91565b50541690823b15612549579060448692838c519586948593632ce962cf60e01b85528401528160248401525af1801561253f579161248391869493612530575b50905061247a565b61253990611c53565b38612528565b88513d86823e3d90fd5b8580fd5b61256b9061255b8486611d91565b50546001600160a01b03166126cf565b386124cd565b6005546001600160a01b039081169061258a8385611d91565b505416813b156125da578491604483928b5194859384926302fb4d8560e01b845260048401526103e860248401525af1801561253f576125cb575b506124c1565b6125d490611c53565b386125c5565b8480fd5b60146125f7866125ee8486611d91565b5001548a611e5d565b6124bb565b61232f565b634e487b7160e01b83526012600452602483fd5b868a60ff60036126258584611d91565b50015460081c16612641575b505061263c90611e4e565b612316565b8295946126679261265861263c9561266194611d91565b50015490611ebb565b93611e4e565b939050868a612631565b67ffffffffffffffff81116106e05760051b60200190565b9061269382612671565b6126a06040519182611c67565b82815280926126b1601f1991612671565b0190602036910137565b8051821015611dad5760209160051b010190565b60008080809481945af1903d15612764573d9067ffffffffffffffff82116127505760405191612709601f8201601f191660200184611c67565b825260203d92013e5b1561271957565b60405162461bcd60e51b815260206004820152600f60248201526e151c985b9cd9995c8819985a5b1959608a1b6044820152606490fd5b634e487b7160e01b81526041600452602490fd5b50612712565b6040519061277782611c1b565b6000604083828152826020820152015256fe3650c68c63e76b8753bf7b55486399babb3b9b783a900219c7adecb43982f979a2646970667358221220304eb1cf0d31d0d5bf4c10ee9b5bb466a604835a5266afe5f5d35e045c04942364736f6c63430008140033",
  "devdoc": {
    "kind": "dev",
    "methods": {},
    "title": "ArbiterEscrow - Agent 协作条件结算协议",
    "version": 1
  },
  "userdoc": {
    "kind": "user",
    "methods": {},
    "notice": "ZK pass/fail 门槛 + Commit-Reveal Jury 主观裁决 + 条件 Escrow 结算",
    "version": 1
  },
  "storageLayout": {
    "storage": [
      {
        "astId": 88,
        "contract": "contracts/ArbiterEscrow.sol:ArbiterEscrow",
        "label": "taskCount",
        "offset": 0,
        "slot": "0",
        "type": "t_uint256"
      },
      {
        "astId": 93,
        "contract": "contracts/ArbiterEscrow.sol:ArbiterEscrow",
        "label": "tasks",
        "offset": 0,
        "slot": "1",
        "type": "t_mapping(t_uint256,t_struct(Task)53_storage)"
      },
      {
        "astId": 99,
        "contract": "contracts/ArbiterEscrow.sol:ArbiterEscrow",
        "label": "juryRecords",
        "offset": 0,
        "slot": "2",
        "type": "t_mapping(t_uint256,t_array(t_struct(JuryRecord)64_storage)dyn_storage)"
      },
      {
        "astId": 105,
        "contract": "contracts/ArbiterEscrow.sol:ArbiterEscrow",
        "label": "juryIndex",
        "offset": 0,
        "slot": "3",
        "type": "t_mapping(t_uint256,t_mapping(t_address,t_uint256))"
      },
      {
        "astId": 110,
        "contract": "contracts/ArbiterEscrow.sol:ArbiterEscrow",
        "label": "agentStats",
        "offset": 0,
        "slot": "4",
        "type": "t_mapping(t_address,t_struct(AgentStats)86_storage)"
      },
      {
        "astId": 113,
        "contract": "contracts/ArbiterEscrow.sol:ArbiterEscrow",
        "label": "juryRegistry",
        "offset": 0,
        "slot": "5",
        "type": "t_contract(JuryRegistry)1981"
      },
      {
        "astId": 116,
        "contract": "contracts/ArbiterEscrow.sol:ArbiterEscrow",
        "label": "verifier",
        "offset": 0,
        "slot": "6",
        "type": "t_contract(IVerifier)1622"
      }
    ],
    "types": {
      "t_address": {
        "encoding": "inplace",
        "label": "address",
        "numberOfBytes": "20"
      },
      "t_array(t_struct(JuryRecord)64_storage)dyn_storage": {
        "base": "t_struct(JuryRecord)64_storage",
        "encoding": "dynamic_array",
        "label": "struct ArbiterEscrow.JuryRecord[]",
        "numberOfBytes": "32"
      },
      "t_bool": {
        "encoding": "inplace",
        "label": "bool",
        "numberOfBytes": "1"
      },
      "t_bytes32": {
        "encoding": "inplace",
        "label": "bytes32",
        "numberOfBytes": "32"
      },
      "t_contract(IVerifier)1622": {
        "encoding": "inplace",
        "label": "contract IVerifier",
        "numberOfBytes": "20"
      },
      "t_contract(JuryRegistry)1981": {
        "encoding": "inplace",
        "label": "contract JuryRegistry",
        "numberOfBytes": "20"
      },
      "t_enum(Status)9": {
        "encoding": "inplace",
        "label": "enum ArbiterEscrow.Status",
        "numberOfBytes": "1"
      },
      "t_mapping(t_address,t_struct(AgentStats)86_storage)": {
        "encoding": "mapping",
        "key": "t_address",
        "label": "mapping(address => struct ArbiterEscrow.AgentStats)",
        "numberOfBytes": "32",
        "value": "t_struct(AgentStats)86_storage"
      },
      "t_mapping(t_address,t_uint256)": {
        "encoding": "mapping",
        "key": "t_address",
        "label": "mapping(address => uint256)",
        "numberOfBytes": "32",
        "value": "t_uint256"
      },
      "t_mapping(t_uint256,t_array(t_struct(JuryRecord)64_storage)dyn_storage)": {
        "encoding": "mapping",
        "key": "t_uint256",
        "label": "mapping(uint256 => struct ArbiterEscrow.JuryRecord[])",
        "numberOfBytes": "32",
        "value": "t_array(t_struct(JuryRecord)64_storage)dyn_storage"
      },
      "t_mapping(t_uint256,t_mapping(t_address,t_uint256))": {
        "encoding": "mapping",
        "key": "t_uint256",
        "label": "mapping(uint256 => mapping(address => uint256))",
        "numberOfBytes": "32",
        "value": "t_mapping(t_address,t_uint256)"
      },
      "t_mapping(t_uint256,t_struct(Task)53_storage)": {
        "encoding": "mapping",
        "key": "t_uint256",
        "label": "mapping(uint256 => struct ArbiterEscrow.Task)",
        "numberOfBytes": "32",
        "value": "t_struct(Task)53_storage"
      },
      "t_string_storage": {
        "encoding": "bytes",
        "label": "string",
        "numberOfBytes": "32"
      },
      "t_struct(AgentStats)86_storage": {
        "encoding": "inplace",
        "label": "struct ArbiterEscrow.AgentStats",
        "members": [
          {
            "astId": 81,
            "contract": "contracts/ArbiterEscrow.sol:ArbiterEscrow",
            "label": "tasksCompleted",
            "offset": 0,
            "slot": "0",
            "type": "t_uint256"
          },
          {
            "astId": 83,
            "contract": "contracts/ArbiterEscrow.sol:ArbiterEscrow",
            "label": "tasksFailed",
            "offset": 0,
            "slot": "1",
            "type": "t_uint256"
          },
          {
            "astId": 85,
            "contract": "contracts/ArbiterEscrow.sol:ArbiterEscrow",
            "label": "totalScore",
            "offset": 0,
            "slot": "2",
            "type": "t_uint256"
          }
        ],
        "numberOfBytes": "96"
      },
      "t_struct(JuryRecord)64_storage": {
        "encoding": "inplace",
        "label": "struct ArbiterEscrow.JuryRecord",
        "members": [
          {
            "astId": 55,
            "contract": "contracts/ArbiterEscrow.sol:ArbiterEscrow",
            "label": "juror",
            "offset": 0,
            "slot": "0",
            "type": "t_address"
          },
          {
            "astId": 57,
            "contract": "contracts/ArbiterEscrow.sol:ArbiterEscrow",
            "label": "scoreHash",
            "offset": 0,
            "slot": "1",
            "type": "t_bytes32"
          },
          {
            "astId": 59,
            "contract": "contracts/ArbiterEscrow.sol:ArbiterEscrow",
            "label": "score",
            "offset": 0,
            "slot": "2",
            "type": "t_uint256"
          },
          {
            "astId": 61,
            "contract": "contracts/ArbiterEscrow.sol:ArbiterEscrow",
            "label": "committed",
            "offset": 0,
            "slot": "3",
            "type": "t_bool"
          },
          {
            "astId": 63,
            "contract": "contracts/ArbiterEscrow.sol:ArbiterEscrow",
            "label": "revealed",
            "offset": 1,
            "slot": "3",
            "type": "t_bool"
          }
        ],
        "numberOfBytes": "128"
      },
      "t_struct(ObjectiveCriteria)16_storage": {
        "encoding": "inplace",
        "label": "struct ArbiterEscrow.ObjectiveCriteria",
        "members": [
          {
            "astId": 11,
            "contract": "contracts/ArbiterEscrow.sol:ArbiterEscrow",
            "label": "minLength",
            "offset": 0,
            "slot": "0",
            "type": "t_uint256"
          },
          {
            "astId": 13,
            "contract": "contracts/ArbiterEscrow.sol:ArbiterEscrow",
            "label": "minFieldCount",
            "offset": 0,
            "slot": "1",
            "type": "t_uint256"
          },
          {
            "astId": 15,
            "contract": "contracts/ArbiterEscrow.sol:ArbiterEscrow",
            "label": "fieldListHash",
            "offset": 0,
            "slot": "2",
            "type": "t_bytes32"
          }
        ],
        "numberOfBytes": "96"
      },
      "t_struct(Task)53_storage": {
        "encoding": "inplace",
        "label": "struct ArbiterEscrow.Task",
        "members": [
          {
            "astId": 18,
            "contract": "contracts/ArbiterEscrow.sol:ArbiterEscrow",
            "label": "id",
            "offset": 0,
            "slot": "0",
            "type": "t_uint256"
          },
          {
            "astId": 20,
            "contract": "contracts/ArbiterEscrow.sol:ArbiterEscrow",
            "label": "payer",
            "offset": 0,
            "slot": "1",
            "type": "t_address"
          },
          {
            "astId": 22,
            "contract": "contracts/ArbiterEscrow.sol:ArbiterEscrow",
            "label": "worker",
            "offset": 0,
            "slot": "2",
            "type": "t_address"
          },
          {
            "astId": 24,
            "contract": "contracts/ArbiterEscrow.sol:ArbiterEscrow",
            "label": "escrow",
            "offset": 0,
            "slot": "3",
            "type": "t_uint256"
          },
          {
            "astId": 26,
            "contract": "contracts/ArbiterEscrow.sol:ArbiterEscrow",
            "label": "juryReward",
            "offset": 0,
            "slot": "4",
            "type": "t_uint256"
          },
          {
            "astId": 28,
            "contract": "contracts/ArbiterEscrow.sol:ArbiterEscrow",
            "label": "deadline",
            "offset": 0,
            "slot": "5",
            "type": "t_uint256"
          },
          {
            "astId": 31,
            "contract": "contracts/ArbiterEscrow.sol:ArbiterEscrow",
            "label": "status",
            "offset": 0,
            "slot": "6",
            "type": "t_enum(Status)9"
          },
          {
            "astId": 34,
            "contract": "contracts/ArbiterEscrow.sol:ArbiterEscrow",
            "label": "objective",
            "offset": 0,
            "slot": "7",
            "type": "t_struct(ObjectiveCriteria)16_storage"
          },
          {
            "astId": 36,
            "contract": "contracts/ArbiterEscrow.sol:ArbiterEscrow",
            "label": "subjectiveCriteria",
            "offset": 0,
            "slot": "10",
            "type": "t_string_storage"
          },
          {
            "astId": 38,
            "contract": "contracts/ArbiterEscrow.sol:ArbiterEscrow",
            "label": "minScore",
            "offset": 0,
            "slot": "11",
            "type": "t_uint256"
          },
          {
            "astId": 40,
            "contract": "contracts/ArbiterEscrow.sol:ArbiterEscrow",
            "label": "resultCommitment",
            "offset": 0,
            "slot": "12",
            "type": "t_bytes32"
          },
          {
            "astId": 42,
            "contract": "contracts/ArbiterEscrow.sol:ArbiterEscrow",
            "label": "resultURI",
            "offset": 0,
            "slot": "13",
            "type": "t_string_storage"
          },
          {
            "astId": 44,
            "contract": "contracts/ArbiterEscrow.sol:ArbiterEscrow",
            "label": "juryCount",
            "offset": 0,
            "slot": "14",
            "type": "t_uint256"
          },
          {
            "astId": 46,
            "contract": "contracts/ArbiterEscrow.sol:ArbiterEscrow",
            "label": "juryCommitted",
            "offset": 0,
            "slot": "15",
            "type": "t_uint256"
          },
          {
            "astId": 48,
            "contract": "contracts/ArbiterEscrow.sol:ArbiterEscrow",
            "label": "juryRevealed",
            "offset": 0,
            "slot": "16",
            "type": "t_uint256"
          },
          {
            "astId": 50,
            "contract": "contracts/ArbiterEscrow.sol:ArbiterEscrow",
            "label": "commitDeadline",
            "offset": 0,
            "slot": "17",
            "type": "t_uint256"
          },
          {
            "astId": 52,
            "contract": "contracts/ArbiterEscrow.sol:ArbiterEscrow",
            "label": "revealDeadline",
            "offset": 0,
            "slot": "18",
            "type": "t_uint256"
          }
        ],
        "numberOfBytes": "608"
      },
      "t_uint256": {
        "encoding": "inplace",
        "label": "uint256",
        "numberOfBytes": "32"
      }
    }
  }
}