{
  "address": "0x33E414c7Cf0856076348329E7402DBB3744584bF",
  "abi": [
    {
      "inputs": [
        {
          "internalType": "uint256[2]",
          "name": "_pA",
          "type": "uint256[2]"
        },
        {
          "internalType": "uint256[2][2]",
          "name": "_pB",
          "type": "uint256[2][2]"
        },
        {
          "internalType": "uint256[2]",
          "name": "_pC",
          "type": "uint256[2]"
        },
        {
          "internalType": "uint256[3]",
          "name": "_pubSignals",
          "type": "uint256[3]"
        }
      ],
      "name": "verifyProof",
      "outputs": [
        {
          "internalType": "bool",
          "name": "",
          "type": "bool"
        }
      ],
      "stateMutability": "view",
      "type": "function"
    }
  ],
  "transactionHash": "0x929ae83a770e2c583ee09d4e514754be7618c032a1053396c4aa504e8a50ca95",
  "args": [],
  "numDeployments": 1,
  "solcInputHash": "b2e2b1ad5924feb2ae7c241b539ea318",
  "bytecode": "0x60808060405234610016576105a8908161001c8239f35b600080fdfe6080604052600436101561001257600080fd5b6000803560e01c6311479fea1461002857600080fd5b3461037e57610160908160031936011261037e5761004536610381565b913660c41161037a5761005736610393565b36610164116103765760209384916104006040526100f36101043561007b816103a1565b6100ee6101243561008b816103a1565b6100e9610144359361009c856103a1565b7f29392853aa91877be8442bcc5450fbf796206f5c2155c8b5e4ada7e3670a2fe46080527f0aaaa1f5be65ce9172a3282b4882303699bdca751775e2a9b3f54fcb3461f3d860a0526103d4565b61045e565b6104e8565b61010093828593358452847f30644e72e131a029b85045b68181585d97816a916871ca8d3c208c16d87cfd47910135810306610120526044356101405260643590526084356101805260a4356101a0527f14e823521f00de560633ba0b79f8738a3245299ca5fd78ee9e8676c3c2e5780a6101c0527f26eef91ceff7a21c3be0a2a168ceb0c9343ca2b814633fb2e9c009b9141233766101e0527f0bea63349802718d10ac8c973780f596c91e31ba7ac72dbaedc5b38cc38c9444610200527f15b59f867648b9519a740ea59a355a5667ee8da0d575c887912f3e6968e88990610220527f081f26fdcb84c13ba5772852f95e46db0dab43275950f109a6f3bece3fca90e5610240527f24cba8e5a0578a4bb438b638cf0005ac3e5c6a4ddd838b289e430ccbdbcffa1c610260526080516102805260a0516102a0527f198e9393920d483a7260bfb731fb5d25f1aa493335a9e71297e485b7aef312c26102c0527f1800deef121f1e76426a00665e5c4479674322d4f75edadd46debd5cd992f6ed6102e05282610300917f090689d0585ff075ec9e99ad690c3395bc4b313370b38ef355acdadcd122975b83527f12c85ea5db8c6deb4aab71808dcb408fe3d1e7690c43d37b4ce6cc0166fa7daa610320528035610340520135610360527e899df11af225813a3fa4575613ee9fc5b6223506097800bdc43cfd7d529a2a610380527f105ae4efbb5f94c6c5d45c076af72178250418ce030aeb63b6c9454e7203dc1e6103a0527f0d3c6e8ce8543c478bead7b3b863eaaa88fce9ac7800a30dc23643785b64d7c96103c0527f0fdfebd77beb8746b2541ddbed1fac00484f66a3be3dd633a98648b04aa468056103e0528160086107cf195a01fa9051168152f35b8280fd5b5080fd5b80fd5b9060049160441161038e57565b600080fd5b9060c4916101041161038e57565b7f30644e72e131a029b85045b68181585d2833e84879b9709143e1f593f000000111156103ca57565b6000805260206000f35b604051907f087747c62204b9e9d60e09c2086309f60e71baff0d59eb28e14aa8a8d8f5b75382527f0590d335aa411a096726af45eaaf437a2e0565389cb269187ea405fc3a79b1a16020830152604082019081526107cf196040836060816007855a01fa156103ca5760409260066080939284938451905260a05160608401525a01fa156103ca57565b604051907f169f4c3a87023bd92b87b9f5d5d04b500447da4d607c9c6f19bb42efd171b00d82527f14bd3e405b29cd27cd8915cb6eb1a79376dae2b700c4fe15de0d8029ba0a17f86020830152604082019081526107cf196040836060816007855a01fa156103ca5760409260066080939284938451905260a05160608401525a01fa156103ca57565b604051907f1b59c5eb04502019fa31d9df24e18bd612fc6e5d7afb0b8c8fd12733a7508e9c82527f2caa4c9c28296def7c67c6d778527c63f0b78c14446e94362d7383a65c148a3f6020830152604082019081526107cf196040836060816007855a01fa156103ca5760409260066080939284938451905260a05160608401525a01fa156103ca5756fea26469706673582212207c4a133efde257ecb179cfa8cc22f52bae34496197248370d121c040edd9b9a364736f6c63430008140033",
  "devdoc": {
    "kind": "dev",
    "methods": {},
    "version": 1
  },
  "userdoc": {
    "kind": "user",
    "methods": {},
    "version": 1
  },
  "storageLayout": {
    "storage": [],
    "types": null
  }
}