{
  "address": "0x18495058554af5d5Ee674221691FDf4754E09BF8",
  "abi": [
    {
      "inputs": [],
      "stateMutability": "nonpayable",
      "type": "constructor"
    },
    {
      "anonymous": false,
      "inputs": [
        {
          "indexed": true,
          "internalType": "address",
          "name": "juror",
          "type": "address"
        },
        {
          "indexed": false,
          "internalType": "uint256",
          "name": "stake",
          "type": "uint256"
        }
      ],
      "name": "JurorRegistered",
      "type": "event"
    },
    {
      "anonymous": false,
      "inputs": [
        {
          "indexed": true,
          "internalType": "address",
          "name": "juror",
          "type": "address"
        },
        {
          "indexed": false,
          "internalType": "uint256",
          "name": "amount",
          "type": "uint256"
        }
      ],
      "name": "JurorSlashed",
      "type": "event"
    },
    {
      "anonymous": false,
      "inputs": [
        {
          "indexed": true,
          "internalType": "address",
          "name": "juror",
          "type": "address"
        },
        {
          "indexed": false,
          "internalType": "uint256",
          "name": "amount",
          "type": "uint256"
        }
      ],
      "name": "JurorWithdrawn",
      "type": "event"
    },
    {
      "inputs": [],
      "name": "MIN_STAKE",
      "outputs": [
        {
          "internalType": "uint256",
          "name": "",
          "type": "uint256"
        }
      ],
      "stateMutability": "view",
      "type": "function"
    },
    {
      "inputs": [],
      "name": "escrowContract",
      "outputs": [
        {
          "internalType": "address",
          "name": "",
          "type": "address"
        }
      ],
      "stateMutability": "view",
      "type": "function"
    },
    {
      "inputs": [
        {
          "internalType": "uint256",
          "name": "index",
          "type": "uint256"
        }
      ],
      "name": "getJuror",
      "outputs": [
        {
          "internalType": "address",
          "name": "",
          "type": "address"
        }
      ],
      "stateMutability": "view",
      "type": "function"
    },
    {
      "inputs": [],
      "name": "getJurorCount",
      "outputs": [
        {
          "internalType": "uint256",
          "name": "",
          "type": "uint256"
        }
      ],
      "stateMutability": "view",
      "type": "function"
    },
    {
      "inputs": [
        {
          "internalType": "address",
          "name": "juror",
          "type": "address"
        }
      ],
      "name": "isEligible",
      "outputs": [
        {
          "internalType": "bool",
          "name": "",
          "type": "bool"
        }
      ],
      "stateMutability": "view",
      "type": "function"
    },
    {
      "inputs": [
        {
          "internalType": "uint256",
          "name": "",
          "type": "uint256"
        }
      ],
      "name": "jurorList",
      "outputs": [
        {
          "internalType": "address",
          "name": "",
          "type": "address"
        }
      ],
      "stateMutability": "view",
      "type": "function"
    },
    {
      "inputs": [
        {
          "internalType": "address",
          "name": "",
          "type": "address"
        }
      ],
      "name": "jurors",
      "outputs": [
        {
          "internalType": "uint256",
          "name": "stake",
          "type": "uint256"
        },
        {
          "internalType": "bool",
          "name": "active",
          "type": "bool"
        }
      ],
      "stateMutability": "view",
      "type": "function"
    },
    {
      "inputs": [],
      "name": "owner",
      "outputs": [
        {
          "internalType": "address",
          "name": "",
          "type": "address"
        }
      ],
      "stateMutability": "view",
      "type": "function"
    },
    {
      "inputs": [],
      "name": "register",
      "outputs": [],
      "stateMutability": "payable",
      "type": "function"
    },
    {
      "inputs": [
        {
          "internalType": "address",
          "name": "juror",
          "type": "address"
        },
        {
          "internalType": "bool",
          "name": "_active",
          "type": "bool"
        }
      ],
      "name": "setActive",
      "outputs": [],
      "stateMutability": "nonpayable",
      "type": "function"
    },
    {
      "inputs": [
        {
          "internalType": "address",
          "name": "_escrow",
          "type": "address"
        }
      ],
      "name": "setEscrowContract",
      "outputs": [],
      "stateMutability": "nonpayable",
      "type": "function"
    },
    {
      "inputs": [
        {
          "internalType": "address",
          "name": "juror",
          "type": "address"
        },
        {
          "internalType": "uint256",
          "name": "bps",
          "type": "uint256"
        }
      ],
      "name": "slash",
      "outputs": [],
      "stateMutability": "nonpayable",
      "type": "function"
    },
    {
      "inputs": [],
      "name": "withdraw",
      "outputs": [],
      "stateMutability": "nonpayable",
      "type": "function"
    }
  ],
  "transactionHash": "0x8d5ffe39988f3f660a2687c91322b4b2696927266e06f990a4d12865ed358706",
  "args": [],
  "numDeployments": 1,
  "solcInputHash": "aa4716c1740859d4a132efee48468a19",
  "bytecode": "0x60a080604052346100295733608052610945908161002f823960805181818160d401526102b20152f35b600080fdfe6040608081526004908136101561001557600080fd5b600091823560e01c806302fb4d851461076b5780631aa3a008146105f05780632ce962cf1461058a5780633ccfd60b1461033d57806366e305fd146102e15780638da5cb5b1461029d5780638e230e6f14610273578063a03854501461023a578063cb1c2b5c14610218578063dca5f6b0146101d2578063e125523a146101b3578063e42a96e7146101865763f42375b5146100b057600080fd5b34610182576020366003190112610182576100c9610830565b6001600160a01b03917f000000000000000000000000000000000000000000000000000000000000000083163303610153576002549383851661012257505016906bffffffffffffffffffffffff60a01b161760025580f35b906020606492519162461bcd60e51b8352820152600b60248201526a105b1c9958591e481cd95d60aa1b6044820152fd5b606490602085519162461bcd60e51b835282015260096024820152682737ba1037bbb732b960b91b6044820152fd5b8280fd5b5050346101af57816003193601126101af5760025490516001600160a01b039091168152602090f35b5080fd5b5050346101af57816003193601126101af576020906001549051908152f35b5050346101af5760203660031901126101af579081906001600160a01b036101f8610830565b168152806020522060ff6001825492015416825191825215156020820152f35b5050346101af57816003193601126101af5760209051662386f26fc100008152f35b509134610270576020366003190112610270575061025a6020923561084b565b905491519160018060a01b039160031b1c168152f35b80fd5b5034610182576020366003190112610182573591600154831015610270575061025a60209261084b565b5050346101af57816003193601126101af57517f00000000000000000000000000000000000000000000000000000000000000006001600160a01b03168152602090f35b5050346101af5760203660031901126101af5760209181906001600160a01b03610309610830565b1681528084522090662386f26fc1000082541015918261032d575b50519015158152f35b6001015460ff1615915038610324565b5090346101825782600319360112610182573383528260205280832091825492610368841515610898565b60019060ff82820154166105555785905584815b61045e575b50508380808086335af13d156104595767ffffffffffffffff3d81811161044657845191601f8201601f19908116603f011683019081118382101761043357855281528560203d92013e5b156103ff5750519081527fb1a732a1a3ef1f32bbba697c21c2f40e16e057be0200c8169e378772d5f3b4c260203392a280f35b6020606492519162461bcd60e51b8352820152600f60248201526e151c985b9cd9995c8819985a5b1959608a1b6044820152fd5b634e487b7160e01b885260418552602488fd5b634e487b7160e01b875260418452602487fd5b6103cc565b81548082101561054f576104718261084b565b90546003926001600160a01b0392909190841b1c821633146104b45750505060001981146104a15781018161037c565b634e487b7160e01b865260118352602486fd5b909193926000199182810190811161053c57906104e4846104d76105039461084b565b905490891b1c169161084b565b90919082549060031b9160018060a01b03809116831b921b1916179055565b825480156105295701926105168461084b565b81939154921b1b19169055553880610381565b634e487b7160e01b895260318652602489fd5b634e487b7160e01b8a526011875260248afd5b50610381565b835162461bcd60e51b8152602081850152600f60248201526e48617320616374697665207461736b60881b6044820152606490fd5b5050346101af57806003193601126101af576105a4610830565b6024359081151582036105ec576105e992600191828060a01b03906105ce826002541633146108d5565b168552846020528420019060ff801983541691151516179055565b80f35b8380fd5b508260031936011261018257662386f26fc10000341061073957338352826020528183205461070257815182810181811067ffffffffffffffff8211176106ef5790610668918452348152600160208201868152338752866020528587209251835551151591019060ff801983541691151516179055565b60015490680100000000000000008210156106dc57506106918160016106af930160015561084b565b81546001600160a01b0360039290921b91821b19163390911b179055565b513481527f302e82b0b7908cfac0232eeb6a83332cbf587d0cb58eaa7ba72f884c149910fa60203392a280f35b634e487b7160e01b845260419052602483fd5b634e487b7160e01b855260418352602485fd5b6020606492519162461bcd60e51b83528201526012602482015271105b1c9958591e481c9959da5cdd195c995960721b6044820152fd5b6020606492519162461bcd60e51b8352820152600d60248201526c5374616b6520746f6f206c6f7760981b6044820152fd5b5034610182578160031936011261018257610784610830565b60025460243593916001600160a01b03916107a290831633146108d5565b16928385528460205281852080549182156107bd8115610898565b8184029184830414171561081d5761271090049384830392831161080a575055519081527fe79f13b65221379a51e8a5c792156c78a9c014eb4ddae1ec990ae85ac25351af90602090a280f35b634e487b7160e01b875260119052602486fd5b634e487b7160e01b875260118552602487fd5b600435906001600160a01b038216820361084657565b600080fd5b6001548110156108825760016000527fb10e2d527612073b26eecdfd717e6a320cf44b4afac2b0732d9fcbe2b7fa0cf60190600090565b634e487b7160e01b600052603260045260246000fd5b1561089f57565b60405162461bcd60e51b815260206004820152600e60248201526d139bdd081c9959da5cdd195c995960921b6044820152606490fd5b156108dc57565b60405162461bcd60e51b815260206004820152600b60248201526a4f6e6c7920657363726f7760a81b6044820152606490fdfea2646970667358221220b692386a9316b73f965c482efef7a4374a8e888f3adf954ec5fca125dda8f81d64736f6c63430008140033",
  "devdoc": {
    "kind": "dev",
    "methods": {},
    "title": "JuryRegistry - Jury 注册、Stake 和 Slash 管理",
    "version": 1
  },
  "userdoc": {
    "kind": "user",
    "methods": {
      "getJuror(uint256)": {
        "notice": "获取 Jury 地址"
      },
      "getJurorCount()": {
        "notice": "获取已注册 Jury 总数"
      },
      "isEligible(address)": {
        "notice": "检查是否已注册且有足够 stake"
      },
      "register()": {
        "notice": "Jury 注册并质押"
      },
      "setActive(address,bool)": {
        "notice": "ArbiterEscrow 调用：设置 Jury 活跃状态"
      },
      "setEscrowContract(address)": {
        "notice": "设置 ArbiterEscrow 合约地址（deployer 调用一次）"
      },
      "slash(address,uint256)": {
        "notice": "ArbiterEscrow 调用：slash Jury stake"
      },
      "withdraw()": {
        "notice": "无活跃任务时取回 stake"
      }
    },
    "notice": "Jury Agent 需质押保证金参与评审，违规行为将被 slash",
    "version": 1
  },
  "storageLayout": {
    "storage": [
      {
        "astId": 1521,
        "contract": "contracts/JuryRegistry.sol:JuryRegistry",
        "label": "jurors",
        "offset": 0,
        "slot": "0",
        "type": "t_mapping(t_address,t_struct(Juror)1516_storage)"
      },
      {
        "astId": 1524,
        "contract": "contracts/JuryRegistry.sol:JuryRegistry",
        "label": "jurorList",
        "offset": 0,
        "slot": "1",
        "type": "t_array(t_address)dyn_storage"
      },
      {
        "astId": 1526,
        "contract": "contracts/JuryRegistry.sol:JuryRegistry",
        "label": "escrowContract",
        "offset": 0,
        "slot": "2",
        "type": "t_address"
      }
    ],
    "types": {
      "t_address": {
        "encoding": "inplace",
        "label": "address",
        "numberOfBytes": "20"
      },
      "t_array(t_address)dyn_storage": {
        "base": "t_address",
        "encoding": "dynamic_array",
        "label": "address[]",
        "numberOfBytes": "32"
      },
      "t_bool": {
        "encoding": "inplace",
        "label": "bool",
        "numberOfBytes": "1"
      },
      "t_mapping(t_address,t_struct(Juror)1516_storage)": {
        "encoding": "mapping",
        "key": "t_address",
        "label": "mapping(address => struct JuryRegistry.Juror)",
        "numberOfBytes": "32",
        "value": "t_struct(Juror)1516_storage"
      },
      "t_struct(Juror)1516_storage": {
        "encoding": "inplace",
        "label": "struct JuryRegistry.Juror",
        "members": [
          {
            "astId": 1513,
            "contract": "contracts/JuryRegistry.sol:JuryRegistry",
            "label": "stake",
            "offset": 0,
            "slot": "0",
            "type": "t_uint256"
          },
          {
            "astId": 1515,
            "contract": "contracts/JuryRegistry.sol:JuryRegistry",
            "label": "active",
            "offset": 0,
            "slot": "1",
            "type": "t_bool"
          }
        ],
        "numberOfBytes": "64"
      },
      "t_uint256": {
        "encoding": "inplace",
        "label": "uint256",
        "numberOfBytes": "32"
      }
    }
  }
}